S014000052544F535F4C6162375F4950432E733337B8
S113000000100020F1190000391A0000391A00000C
S1130010391A0000391A0000391A0000391A000090
S1130020391A0000391A0000391A0000391A000080
S1130030391A0000391A0000DF950000391A00004F
S1130040391A0000391A0000391A0000391A000060
S1130050391A0000391A0000391A0000391A000050
S1130060391A0000391A000049B50000391A000095
S1130070391A0000391A0000391A0000391A000030
S1130080391A0000391A0000E9B50000391A0000D5
S1130090391A0000391A0000391A0000391A000010
S11300A0391A0000391A0000391A0000391A000000
S11300B0391A0000391A00004DA40000391A000052
S11300C0391A0000391A0000391A0000391A0000E0
S11300D0391A0000391A0000391A0000391A0000D0
S11300E0391A0000391A0000391A0000391A0000C0
S11300F0391A0000391A0000391A0000391A0000B0
S1130100391A0000391A0000391A000010B5054CDC
S1130110237833B9044B13B10448AFF300800123AF
S1130120237010BD201100200000000058CD0000F5
S113013008B5034B1BB103490348AFF3008008BD66
S1130140000000002411002058CD0000A3F5803ADF
S1130150704700BF174B002B08BF134B9D46FFF79A
S1130160F5FF00218B460F461348144A121A0BF070
S113017015FD0E4B002B00D098470D4B002B00D0E3
S113018098470020002104000D000D48002802D0EB
S11301900C48AFF300800BF0BFFC200029000BF0EB
S11301A0C5FA0BF0A5FC00BF000008000000000029
S11301B0000000000010002020110020A87D002075
S11301C0000000000000000000B583B01F4B019345
S11301D0019B03221A61019B03225A61019B1C4A61
S11301E09A61019B1B4ADA61019B4FF480621A6297
S11301F0019B00229A62019B00225A62019B002209
S1130200DA62019B124A1A66019B134A5A66019BE1
S113021010229A66019B00221A67019B0022DA666B
S1130220019B00225A67019B07330C4918460BF0C7
S113023073FD019B0A4918460BF06EFD019B2022B9
S11302409A7100BF03B05DF804FB00BF3C110020AD
S113025060BD0000E4110020E41500206CBD000026
S113026070BD000000B58BB00390029101923C4B2D
S11302701B78002B01D1FFF7A7FF039A13465B00FD
S11302801344DB006033364A13440693029B0793FE
S1130290069B1B690893069BDB680593002309935F
S11302A0089A059B9A422AD9069B9A68089BD31AF6
S11302B00493049A019B934228BF13460493069B1C
S11302C05A68089B1344049A194607980BF058FC83
S11302D0099A049B13440993079A049B13440793B4
S11302E0019A049BD31A0193089A049B134408931C
S11302F0069B9B68089A9A4201D100230893059AA9
S1130300089BD31A0493049A019B934228BF134673
S11303100493049B002B18D0069B5A68089B134433
S1130320049A194607980BF02BFC099A049B134472
S11303300993079A049B13440793019A049BD31AC5
S11303400193089A049B13440893099B002B02D041
S1130350069B089A1A61099B18460BB05DF804FBCA
S11303603C11002000B587B00390029101920093E4
S1130370304B1B78002B01D1FFF726FF2D4B1B6957
S11303801A46039B93424CD2EFF311834FF02001A2
S113039081F311880493039B002B32D02549039BDE
S11303A05A1C13465B001344DB000B44029A1A6088
S11303B02049039B5A1C13465B001344DB000B4487
S11303C00433019A1A601B49039A13465B001344D1
S11303D0DB000B442033009A1A601649039A134633
S11303E05B001344DB000B44283300221A601149DC
S11303F0039A13465B001344DB000B4424330022AE
S11304001A600C49039A13465B001344DB000B4447
S11304102C33089A1A60049B83F3118800230593F4
S113042002E04FF0FF330593059B184607B05DF8D3
S113043004FB00BF3C11002000B587B0039002917B
S1130440019200932F4B1B78002B01D1FFF7BCFEC8
S11304502C4B5B691A46039B93424BD2EFF31183F7
S11304604FF0200181F311880493039B002B31D0BA
S11304702449039A13465B001344DB000B446033A6
S1130480029A1A601F49039A13465B001344DB0067
S11304900B446433019A1A601A49039A13465B00A9
S11304A01344DB000B446833009A1A601549039A1D
S11304B013465B001344DB000B44703300221A60C4
S11304C01049039A13465B001344DB000B446C335E
S11304D000221A600B49039A13465B001344DB00A5
S11304E00B447433089A1A60049B83F31188002325
S11304F0059302E04FF0FF330593059B184607B0C0
S11305005DF804FB3C110020F0B400EB4003DFF87D
S1130510800000EBC30000F118063069F7687568C5
S113052087422ED3B368DC1B631E934212D37D191A
S1130530D01900BF11F8013B05F8013B013A05D081
S113054011F8013B05F8013B013AF3D1F0600120B9
S1130550F0BC7047C018904217D37819121B11F8D9
S1130560013B00F8013B013CF9D1141C05D011F802
S1130570013B05F8013B013AF9D1F4600120F0BCDC
S11305807047C01B01389042D1D20020F0BC7047A4
S11305903C11002086B00390029101920023049341
S11305A002E0049B01330493029A049B13441B78D6
S11305B0002BF6D1049A019B9A4201D9019B049322
S11305C0049BFE2B06D8039B5A1C0392049AD2B2B6
S11305D01A7011E0039B5A1C0392FF221A70039BAA
S11305E05A1C0392049AD2B21A70049B190A039BF0
S11305F05A1C0392CAB21A70002305930AE0029AA5
S1130600531C0293039B591C039112781A70059B87
S113061001330593059A049B9A42F0D3039B184631
S113062006B0704782B00190019B0433184602B0B3
S11306307047000000B583B00DF103030122194691
S11306400120FFF70FFE03460193019B002B50DDB1
S11306509DF80330072B15DC002B3DDD013B062BF9
S11306603AD801A252F823F08B060000910600004C
S1130670970600009D060000A3060000A9060000DE
S1130680AF060000802B15D026E000F073FA35E0A9
S113069000F026FB32E000F0F9FC2FE000F0C2FC91
S11306A02CE000F041FB29E000F054FF26E000F0CC
S11306B035FF23E00DF10303012219460120FFF762
S11306C0D1FD03460193019B002B14DD9DF80330FB
S11306D0184600F0A1FE0EE09DF803305BB2002B3B
S11306E00BDA0DF10303012219460120FFF7BAFDCD
S11306F003E000BF02E000BF00E000BF00BF03B0A2
S11307005DF804FB00B58DB001238DF8043001AB16
S113071001330793079B0B93304B5B690A930BE000
S11307200A9BDAB20B9B591C0B9162F07F02D2B286
S11307301A700A9BDB090A930A9B7F2BF0D80B9B48
S11307405A1C0B920A9AD2B21A700B9B0793244B31
S11307501B680693214BDB68069AD31A0593079B03
S11307600993059B08930BE0089BDAB2099B591C7B
S1130770099162F07F02D2B21A70089BDB090893D8
S1130780089B7F2BF0D8099B5A1C0992089AD2B275
S11307901A70099B079301AB079AD31A1A4601AB47
S11307A019460120FFF7B0FE03460493049B002B77
S11307B009D00A4A069BD360084B1B78013BDAB286
S11307C0064B1A7004E0054B5B690133034A53611D
S11307D0049B18460DB05DF804FB00BFFC19002013
S11307E0041000E000B58BB0039002910192634BBA
S11307F01B78012B10D0614B1B78002B00F0A180DB
S11308005E4B1B78022B09D1FFF77CFF5B4B1B78F7
S1130810012B40F0988001E000BF00E000BF019B85
S11308201F2B09D8554BDA69019B22FA03F303F015
S11308300103002B40F08980019B172B07D8039BF1
S1130840013B0393019BDAB2039B1A703DE0029AC9
S1130850039BD31A0793079B7F2B12D9079BDA09B3
S1130860039B013B0393D2B2039B1A70079BDBB239
S1130870039A013A039263F07F03DAB2039B1A707E
S113088006E0039B013B0393079BDAB2039B1A70B8
S1130890019B7F2B12D9019BDA09039B013B039334
S11308A0D2B2039B1A70019BDBB2039A013A039202
S11308B063F07F03DAB2039B1A7006E0039B013BEB
S11308C00393019BDAB2039B1A702D4B1B680693AA
S11308D02A4BDB68069AD31A0593029B0993059B5E
S11308E008930BE0089BDAB2099B591C099162F04A
S11308F07F02D2B21A70089BDB090893089B7F2BF6
S1130900F0D8099B5A1C0992089AD2B21A70099B12
S11309100293029A039BD31A1A4603990120FFF704
S1130920F3FD03460493049B002B03D0134A069B58
S1130930D3600BE0114B1B780133DAB20F4B1A7002
S113094004E000BF02E000BF00E000BF0D4BD3F89D
S113095084200C4BD3F888309A420BD0074B9B78F9
S1130960002B07D1054B01229A70FFF763FE034B5E
S113097000229A7000BF0BB05DF804FBFC19002044
S1130980041000E03C11002000B587B005900491EC
S113099003920293002300934FF48063134A144993
S11309A00120FFF7DFFC002300930823114A1049BC
S11309B00120FFF741FD104B4FF080521A610F4B9D
S11309C01B680D4AD3600C4A039B13620A4A059BB9
S11309D05360094A049B9360074A029B5362064B87
S11309E000221A7000BF07B05DF804FBF415002064
S11309F084BD0000F4190020FC190020041000E05C
S1130A0082B00190024A019B136100BF02B070479B
S1130A10FC19002000B585B00190EFF311834FF06D
S1130A20200181F3118803930748FFF7FBFD02902F
S1130A30019A02990298FFF7D5FE039B83F311886C
S1130A4000BF05B05DF804FB2C1A002000B589B086
S1130A5001900091EFF311834FF0200181F311888D
S1130A6005931748FFF7DEFD0490049B0393039B53
S1130A700793009B06930BE0069BDAB2079B591C75
S1130A80079162F07F02D2B21A70069BDB090693CB
S1130A90069B7F2BF0D8079B5A1C0792069AD2B26A
S1130AA01A70079B0393019A03990498FFF79AFE1F
S1130AB0059B83F3118800BF09B05DF804FB00BFF8
S1130AC02C1A002000B58DB0039002910192EFF32F
S1130AD011834FF0200181F3118807932448FFF715
S1130AE0A1FD0690069B0593059B0B93029B0A931D
S1130AF00BE00A9BDAB20B9B591C0B9162F07F024C
S1130B00D2B21A700A9BDB090A930A9B7F2BF0D896
S1130B100B9B5A1C0B920A9AD2B21A700B9B059328
S1130B20059B0993019B08930BE0089BDAB2099B90
S1130B30591C099162F07F02D2B21A70089BDB093A
S1130B400893089B7F2BF0D8099B5A1C0992089A9A
S1130B50D2B21A70099B0593039A05990698FFF778
S1130B6041FE079B83F3118800BF0DB05DF804FBC1
S1130B702C1A002000B58DB0564B01221A70EFF3E9
S1130B8011834FF0200181F3118803930A22524903
S1130B900120FFF7B9FC039B83F311880A20FFF7B8
S1130BA039FFEFF311834FF0200181F31188029391
S1130BB04A48FFF737FD0190019B0093009B0B937C
S1130BC0444B5B680A930BE00A9BDAB20B9B591CFB
S1130BD00B9162F07F02D2B21A700A9BDB090A936E
S1130BE00A9B7F2BF0D80B9B5A1C0B920A9AD2B209
S1130BF01A700B9B0093009B0993364B9B680893D8
S1130C000BE0089BDAB2099B591C099162F07F0240
S1130C10D2B21A70089BDB090893089B7F2BF0D88B
S1130C20099B5A1C0992089AD2B21A70099B009324
S1130C30009B0793274B1B6906930BE0069BDAB2D4
S1130C40079B591C079162F07F02D2B21A70069B6F
S1130C50DB090693069B7F2BF0D8079B5A1C07924F
S1130C60069AD2B21A70079B0093009B0593022345
S1130C7004930BE0049BDAB2059B591C059162F0C6
S1130C807F02D2B21A70049BDB090493049B7F2B6E
S1130C90F0D8059B5A1C0592049AD2B21A70059B8F
S1130CA00093182200990198FFF79CFD029B83F39F
S1130CB01188084B5B6A002B02D0064B5B6A98478D
S1130CC000F0E4F900F0AEF900F044FC00BF0DB010
S1130CD05DF804FBFC19002078BD00002C1A0020EC
S1130CE000B583B0EFF311834FF0200181F3118835
S1130CF001930B48FFF796FC00900A4B1B78002BDE
S1130D0007D00B2200990098FFF76CFD054B0022D9
S1130D101A70019B83F3118800BF03B05DF804FBD4
S1130D202C1A0020FC19002000B58DB0EFF31183BC
S1130D304FF0200181F3118803934648FFF772FCBA
S1130D400290029B0193019B0B93434B5B680A93B4
S1130D500BE00A9BDAB20B9B591C0B9162F07F02E9
S1130D60D2B21A700A9BDB090A930A9B7F2BF0D834
S1130D700B9B5A1C0B920A9AD2B21A700B9B0193CA
S1130D80019B0993344B9B6808930BE0089BDAB2F0
S1130D90099B591C099162F07F02D2B21A70089B18
S1130DA0DB090893089B7F2BF0D8099B5A1C0992F6
S1130DB0089AD2B21A70099B0193019B0793264BA0
S1130DC01B6906930BE0069BDAB2079B591C07913B
S1130DD062F07F02D2B21A70069BDB090693069B6F
S1130DE07F2BF0D8079B5A1C0792069AD2B21A702E
S1130DF0079B0193019B0593022304930BE0049B3F
S1130E00DAB2059B591C059162F07F02D2B21A70C6
S1130E10049BDB090493049B7F2BF0D8059B5A1C8D
S1130E200592049AD2B21A70059B01931822019973
S1130E300298FFF7D7FC039B83F31188064B5B6A88
S1130E40002B02D0044B5B6A984700BF0DB05DF8DD
S1130E5004FB00BF2C1A0020FC19002000B593B03D
S1130E600190EFF311834FF0200181F31188059372
S1130E706A48FFF7D7FB0490049B0393039B1193E9
S1130E80019B1A68664B1B69D31A9B0810930BE0ED
S1130E90109BDAB2119B591C119162F07F02D2B2FD
S1130EA01A70109BDB091093109B7F2BF0D8119BB9
S1130EB05A1C1192109AD2B21A70119B0393039B7D
S1130EC00F93019B9B680E930BE00E9BDAB20F9B72
S1130ED0591C0F9162F07F02D2B21A700E9BDB098B
S1130EE00E930E9B7F2BF0D80F9B5A1C0F920E9AD9
S1130EF0D2B21A700F9B0393019B5B6820221946A0
S1130F000398FFF747FB0390092203990498FFF71E
S1130F1069FC049B0393039B0D93019B1A68404B4C
S1130F201B69D31A9B080C930BE00C9BDAB20D9B44
S1130F30591C0D9162F07F02D2B21A700C9BDB092E
S1130F400C930C9B7F2BF0D80D9B5A1C0D920C9A82
S1130F50D2B21A700D9B0393039B0B93019BDB6826
S1130F600A930BE00A9BDAB20B9B591C0B9162F0BB
S1130F707F02D2B21A700A9BDB090A930A9B7F2B69
S1130F80F0D80B9B5A1C0B920A9AD2B21A700B9B84
S1130F900393039B0993019B1B6908930BE0089B34
S1130FA0DAB2099B591C099162F07F02D2B21A701D
S1130FB0089BDB090893089B7F2BF0D8099B5A1CDC
S1130FC00992089AD2B21A70099B0393039B079360
S1130FD0002306930BE0069BDAB2079B591C07918A
S1130FE062F07F02D2B21A70069BDB090693069B5D
S1130FF07F2BF0D8079B5A1C0792069AD2B21A701C
S1131000079B0393152203990498FFF7EBFB059BB9
S113101083F3118800BF13B05DF804FB2C1A002081
S1131020FC19002008B5074B1B6A002B08D0054BA0
S11310301B6A5B68002B03D0024B1B6A5B689847F2
S113104000BF08BDFC19002000B587B00190EFF384
S113105011834FF0200181F3118805930A48FFF7AB
S1131060E1FA0490802201990498FFF793FA03901F
S11310700E2203990498FFF7B5FB059B83F31188AF
S113108000BF07B05DF804FB2C1A002010B582B035
S1131090144B1B6A002B1AD0124B1B6A1B68002BC3
S11310A015D0104B1B6A1B689847CDE90001009CC2
S11310B0DDE900014FF000024FF000030A000023B5
S11310C013461A4621460D20FFF7FCFC06E0064BAA
S11310D01B6819460C20FFF7B9FC00BF00BF02B023
S11310E010BD00BFFC190020041000E000B583B05F
S11310F0EFF311834FF0200181F311880193084825
S1131100FFF790FA0090112200990098FFF76AFB0C
S1131110019B83F3118800BF03B05DF804FB00BF9B
S11311202C1A002000B589B00190EFF311834FF021
S1131130200181F3118805931948FFF773FA04908D
S1131140049B0393174B1B69019AD31A9B080193C1
S1131150039B0793019B06930BE0069BDAB2079B64
S1131160591C079162F07F02D2B21A70069BDB0908
S11311700693069B7F2BF0D8079B5A1C0792069A6E
S1131180D2B21A70079B0393082203990498FFF7BD
S113119029FB059B83F3118800BF09B05DF804FBAC
S11311A02C1A0020FC19002000B589B00190EFF33F
S11311B011834FF0200181F3118805931948FFF73B
S11311C031FA0490049B0393174B1B69019AD31AB9
S11311D09B080193039B0793019B06930BE0069BDB
S11311E0DAB2079B591C079162F07F02D2B21A70DF
S11311F0069BDB090693069B7F2BF0D8079B5A1CA2
S11312000792069AD2B21A70079B03930422039999
S11312100498FFF7E7FA059B83F3118800BF09B030
S11312205DF804FB2C1A0020FC19002000B589B0DD
S11312300190EFF311834FF0200181F3118805939E
S11312401948FFF7EFF90490049B0393174B1B69AC
S1131250019AD31A9B080193039B0793019B06935E
S11312600BE0069BDAB2079B591C079162F07F02E0
S1131270D2B21A70069BDB090693069B7F2BF0D82B
S1131280079B5A1C0792069AD2B21A70079B0393C3
S1131290062203990498FFF7A5FA059B83F31188A6
S11312A000BF09B05DF804FB2C1A0020FC190020D3
S11312B000B58BB001900091EFF311834FF0200142
S11312C081F3118805932848FFF7ACF90490049B37
S11312D00393264B1B69019AD31A9B080193039B22
S11312E00993019B08930BE0089BDAB2099B591CF4
S11312F0099162F07F02D2B21A70089BDB0908934D
S1131300089B7F2BF0D8099B5A1C0992089AD2B2E9
S11313101A70099B0393039B0793009B06930BE0AE
S1131320069BDAB2079B591C079162F07F02D2B286
S11313301A70069BDB090693069B7F2BF0D8079B4C
S11313405A1C0792069AD2B21A70079B039307227B
S113135003990498FFF746FA059B83F3118800BFAD
S11313600BB05DF804FB00BF2C1A0020FC19002010
S113137000B589B001900091EFF311834FF0200183
S113138081F3118805931C48FFF74CF90490049BE2
S11313900393039B0793194B1B69019AD31A9B0868
S11313A006930BE0069BDAB2079B591C079162F087
S11313B07F02D2B21A70069BDB090693069B7F2B31
S11313C0F0D8079B5A1C0792069AD2B21A70079B50
S11313D00393802200990398FFF7DCF80390192205
S11313E003990498FFF7FEF9059B83F3118800BF66
S11313F009B05DF804FB00BF2C1A0020FC19002082
S113140082B00190034B1B69019AD31A9B081846BA
S113141002B07047FC19002000B58DB003468DF86A
S113142007303C4B1B68002B6FD03A4B1B680B9367
S113143000230A9308E00B9B1B690B930B9B002B67
S113144008D00A9B01330A939DF807300A9A9A42FE
S1131450F1D300E000BF0B9B002B56D0EFF31183B8
S11314604FF0200181F3118805932B48FFF7DAF838
S11314700490049B0393039B09939DF807300893FE
S11314800BE0089BDAB2099B591C099162F07F02B8
S1131490D2B21A70089BDB090893089B7F2BF0D803
S11314A0099B5A1C0992089AD2B21A70099B039399
S11314B0039B07930B9B9B6806930BE0069BDAB296
S11314C0079B591C079162F07F02D2B21A70069BE7
S11314D0DB090693069B7F2BF0D8079B5A1C0792C7
S11314E0069AD2B21A70079B03930B9B1B68802247
S11314F019460398FFF74EF80390162203990498AF
S1131500FFF770F9059B83F3118800BF0DB05DF8F8
S113151004FB00BF241A00202C1A002000B583B05D
S11315200B4B1B68002B0FD0094B1B680193019BCD
S1131530DB68002B02D0019BDB689847019B1B6989
S11315400193019B002BF2D100BF03B05DF804FBB3
S1131550241A002000B587B0EFF311834FF0200167
S113156081F3118803931748FFF75CF80290029BFC
S11315700193019B0593144B1B7804930BE0049B8C
S1131580DAB2059B591C059162F07F02D2B21A703F
S1131590049BDB090493049B7F2BF0D8059B5A1C06
S11315A00592049AD2B21A70059B01931B220199E9
S11315B00298FFF717F9039B83F3118800BF07B064
S11315C05DF804FB2C1A0020281A002000B58BB00B
S11315D00190EFF311834FF0200181F311880593FB
S11315E02648FFF71FF80490802201990498FEF71B
S11315F0D1FF0390039B0993012308930BE0089BFD
S1131600DAB2099B591C099162F07F02D2B21A70B6
S1131610089BDB090893089B7F2BF0D8099B5A1C75
S11316200992089AD2B21A70099B0393039B0793F9
S1131630002306930BE0069BDAB2079B591C079123
S113164062F07F02D2B21A70069BDB090693069BF6
S11316507F2BF0D8079B5A1C0792069AD2B21A70B5
S1131660079B03931A2203990498FFF7BBF8059B81
S113167083F3118800BF0BB05DF804FB2C1A002023
S113168008B50548FFF7E0FC0448FFF7DDFC00F06F
S11316906FF900BF08BD00BF8CBD0000C0BD0000D5
S11316A000B583B000F0CAF9019000F0C7F90090CA
S11316B0064B074A00990198FFF766F94FF000506E
S11316C0FFF79EF900BF03B05DF804FB811600002C
S11316D078BE000070B584B00023039334E01F4942
S11316E0039A13469B0013449B000B4418681B4940
S11316F0039A13469B0013449B000B44043319685C
S1131700164C039A13469B0013449B00234408334E
S11317101C68124D039A13469B0013449B002B44F0
S11317200C331B681E460D4D039A13469B0013444D
S11317309B002B4410331B6800933346224600F071
S1131740B1F8039B01330393054B1B68039A9A4238
S1131750C5D300BF00BF04B070BD00BF101B002084
S11317601020002000B585B003F0B8FA0390039868
S113177007F0B8FECDE90001DDE900231046194663
S113178005B05DF804FB00B583B0019003F07EFE64
S11317900346002B02D10198FFF748FD00BF03B0B8
S11317A05DF804FB00B583B0019003F06FFE0346BF
S11317B0002B02D10198FFF7F7FC00BF03B05DF8DE
S11317C004FB00B583B0019003F060FE0346002BD8
S11317D003D104210198FFF76BFD00BF03B05DF84E
S11317E004FB000000B587B00590049103920293B6
S11317F003F04CFE0346002B4BD1274B1B683F2BB9
S113180003D92648FFF7E2FE43E0234B1A68244934
S113181013469B0013449B000B44059A1A601E4B0D
S11318201A681F4913469B0013449B000B4404335E
S1131830049A1A60184B1A68194913469B001344FA
S11318409B000B440833039A1A60134B1A6814491B
S113185013469B0013449B000B440C33029A1A60FA
S11318600D4B1A680E4913469B0013449B000B440E
S11318701033089A1A60084B1B680133064A136038
S1131880029A089B00931346039A0499059800F062
S113189009F807B05DF804FB10200020D4BD000057
S11318A0101B002000B58BB00390029101920093AD
S11318B005AB1422002118460AF070F9039B059326
S11318C0029B0693019B0793009B08930C9B09932F
S11318D005AB1846FFF7C2FA00BF0BB05DF804FB76
S11318E000B585B003900291019201990298FFF727
S11318F03FFD0298FFF784FD034619460398FFF75E
S1131900A5F8184B1B68FF2B03D91748FFF75EFE99
S113191024E0144B1A68154913465B0013449B00DA
S11319200B44029A1A600F4B1A68104913465B0065
S113193013449B000B440433019A1A60094B1A6840
S11319400A4913465B0013449B000B4408330022EE
S11319501A60044B1B680133024A136005B05DF83A
S113196004FB00BF142C002024BE0000142000201F
S113197000B583B0002301932BE01B49019A134661
S11319805B0013449B000B4408331B68002B1DD1E0
S11319901549019A13465B0013449B000B441868D5
S11319A01149019A13465B0013449B000B44043312
S11319B01B681946FFF7DCFC0B49019A13465B00D0
S11319C013449B000B44083301221A60019B01332A
S11319D00193064B1B68019A9A42CED300BF00BF05
S11319E003B05DF804FB00BF14200020142C002079
S11319F000B585B000F08AF80C4B03930C4B0293AE
S1131A000B4B01930B4B00930AE0039A131D0393B2
S1131A10029B191D029112681A60019B0433019301
S1131A20019A009B9A42F0D3FEF794FB60CD00002C
S1131A300010002020110020FEE7000000B583B054
S1131A4000F020F801900A4BD3F808311B0AC3F3C5
S1131A5008030093009B0133019AB2FBF3F3019353
S1131A60044A019B1360019B184603B05DF804FB14
S1131A7000400E4008100020014B1846704700BF7C
S1131A80005A620282B01A4BD3F8943003F0070371
S1131A90023B032B1BD801A252F823F0BD1A00000D
S1131AA0B51A0000AD1A0000C51A0000114B1B68DE
S1131AB0019310E04FF4004301930CE00E4B1B68BC
S1131AC0019308E00D4B1B685B08019303E00B4B8B
S1131AD01B68019300BF064BD3F800311B0A03F0C7
S1131AE01F030133019AB2FBF3F3184602B07047A7
S1131AF000400E4004100020001000200C100020B4
S1131B00014B1B681846704700100020064B074A1B
S1131B109A60054BD3F88830034A43F47003C2F843
S1131B20883000BF704700BF00ED00E000000000F7
S1131B304FF40043184670474FF47A7318467047C1
S1131B40014B1B68184670470410002084B00190B4
S1131B500B4B1A68019B13440A4A934202D94FF073
S1131B60FF3309E0064B1B680393054B1A68019B7E
S1131B701344034A1360039B184604B0704700BF24
S1131B80101000200000042000B587B003900291DB
S1131B900192029B1F2B03D991210A4800F0E8F817
S1131BA0039B03F1424303F58013DA00029B1344C1
S1131BB09B000593059B019A1A6000BF07B05DF86E
S1131BC004FB00BF80BE000000B587B00390029103
S1131BD0019201F0CBFB0590039B1A68029BDB4347
S1131BE01A400199029B0B401A43039B1A60059803
S1131BF001F0C8FB00BF07B05DF804FB00B583B07B
S1131C0001900091019BB3F1804F07D0019B274ABB
S1131C10934203D0A221264800F0AAF8009B1B6936
S1131C203F2B03D9B621224800F0A2F8009BDB68C1
S1131C303F2B03D9B7211E4800F09AF8009B5B683C
S1131C403F2B03D9B8211A4800F092F8009B1B7867
S1131C50DB071A46009B5B681B06134343F40042F0
S1131C60019B1A60009BDB681B04009A127A1A43DA
S1131C70019B9A62009B1B691B04009A527A1A43C7
S1131C80019BDA62009B9B7A1B0743F0806343F459
S1131C907D43019A53600198009B1B7D1A460021E5
S1131CA0FFF772FF00BF03B05DF804FB00040040BF
S1131CB0E4BE000000B583B001900B468DF80330FC
S1131CC0019BB3F1804F07D0019B094A934203D093
S1131CD0F521084800F04CF8019B04339DF80320DB
S1131CE0FF211846FFF770FF00BF03B05DF804FB47
S1131CF000040040E4BE000000B583B00190019BE5
S1131D00B3F1804F08D0019B084A934204D040F2BB
S1131D101B11074800F02CF8019B1B6823F00102FB
S1131D20019B1A6000BF03B05DF804FB000400408F
S1131D30E4BE000000B583B00190019BB3F1804F75
S1131D4008D0019B084A934204D04FF49C71074881
S1131D5000F00EF8019B1B6843F00102019B1A601E
S1131D6000BF03B05DF804FB00040040E4BE0000C3
S1131D7082B001900091FEE700B583B00190019B11
S1131D801F2B04D940F22F110548FFF7F1FF012260
S1131D90019B02FA03F3184603B05DF804FB00BF8D
S1131DA014BF000000B587B0039002910192029B1A
S1131DB01F2B03D991210A48FFF7DAFF039B03F194
S1131DC0424303F58013DA00029B13449B000593FE
S1131DD0059B019A1A6000BF07B05DF804FB00BFC1
S1131DE07CBF000084B001900091019B03F1424349
S1131DF003F58013DA00009B13449B000393039BB9
S1131E001B68184604B07047054B1B6803F0400379
S1131E10002B01D1012300E000231846704700BFC6
S1131E203C300E4008B5FFF7EFFF034683F0010393
S1131E30DBB2002B08D100BF12210448FFF7D2FF08
S1131E400346002BF8D100E000BF08BD04300E406B
S1131E5008B5FFF7E7FF044B5B681B0C03F00303B3
S1131E60DBB2184608BD00BF00300E4000B585B097
S1131E70019001230393019B124A934204D8002347
S1131E8003930023029308E0019B0F4A934202D874
S1131E900123029301E002230293039A10210B48C9
S1131EA0FFF780FF094BD3F8003123F08072029BC7
S1131EB01B0606491343C1F8003100BF05B05DF8A5
S1131EC004FB00BF0048E8010090D00300400E402E
S1131ED082B0034B1B680193019B184602B0704704
S1131EE01410002000B583B0FFF7CCFD0190074B20
S1131EF0D3F800311B0A03F01F030133019A02FBDC
S1131F0003F3184603B05DF804FB00BF00400E4025
S1131F1000B583B0104800F081FC03468DF803300F
S1131F209DF80330072B05D0092B07D1FFF7AAFD35
S1131F3001900BE0FFF7CCFF019007E00023019331
S1131F4041F2FC210548FFF713FF00BF019B18462F
S1131F5003B05DF804FB00BF06000E0044C000009F
S1131F6000B585B00190019B002B1FD1214800F0E2
S1131F7055FC03468DF80B3000BF9DF80B30013B38
S1131F80072B29D801A252F823F000BFBB1F000081
S1131F90D91F0000D91F0000C91F0000D91F00006D
S1131FA0D91F0000C11F0000D11F000041F21C31E5
S1131FB01148FFF7DDFE002317E00023039313E02D
S1131FC0FFF786FF03900FE0FFF79AFD03900BE005
S1131FD0FFF788FF039007E00023039341F23331B6
S1131FE00548FFF7C5FE00BF039B184605B05DF822
S1131FF004FB00BFB800320044C0000000B585B047
S1132000019000911F4B5B6803F04073039300231E
S1132010029312E01C4A029BDB0013441A79009BD2
S1132020DBB29A4206D1184A029B52F83330019A25
S11320309A4206D9029B01330293029B042BE9D9ED
S113204000E000BF029B052B07D10323039341F259
S11320503A410E48FFF78CFE05E00B4A029BDB0079
S113206013445B790393039B1B060393054B5B6843
S113207023F040720349039B13434B6000BF05B038
S11320805DF804FB00000E40A8C0000044C000003E
S113209000B583B00E4B1B6C002B14BF012300232F
S11320A08DF807300A4B41F671321A64FFF7E4FCED
S11320B0034600211846FFF7A1FF9DF80730002BC7
S11320C002D0034B00221A6400BF03B05DF804FB86
S11320D000000E4000B585B0019000910D4B1B6CC3
S11320E0002B14BF012300238DF80F30094B41F658
S11320F071321A6400990198FFF780FF9DF80F3040
S1132100002B02D0034B00221A6400BF05B05DF817
S113211004FB00BF00000E4086B001900F2305931E
S1132120019B03330493059B0393039A049B9342FB
S113213028BF13460293029B1B070293029B184677
S113214006B07047034B5B6A1B0903F00303184690
S1132150704700BF00400E4082B00190054B5B6A9F
S113216023F03002019B1B01024913434B6200BF61
S113217002B0704700400E4010B584B001900023B7
S11321800293019B424A934211D0019B404A9342DD
S113219007D8019B3F4A934209D0019B3E4A934290
S11321A005D041F23A513D48FFF7E2FD00E000BF9F
S11321B0019800F033FB03460393019B344A934296
S11321C01AD0019B324A93421DD8019B314A934253
S11321D004D0019B304A934207D014E0304BD3F82B
S11321E0803003F00703039313E02D4BD3F88430BE
S11321F003F0070303930CE0294BD3F8883003F072
S11322000703039305E041F269512448FFF7B0FD49
S113221000BF039B042B2ED801A252F823F000BF69
S113222071220000352200003D2200004D220000F2
S113223045220000FFF77CFC029024E0FFF780FCBD
S1132240029020E0FFF778FC02901CE0FFF71AFCF4
S11322500446134BD3F800311B0E03F00103013382
S11322601846FFF789FD0346B4FBF3F302930AE033
S11322700023029307E00023029341F2BB51074875
S1132280FFF776FD00BF029B184604B010BD00BFE7
S11322900500240002001E000300200044C00000CA
S11322A000400E4082B00190094BD3F8443103F052
S11322B00103002B08D100BF054BD3F84021019B3B
S11322C01340002BF8D100E000BF02B0704700BFFC
S11322D000400E4000BF704700BF704700B583B098
S11322E00190019800F0BAF903460133184603B08F
S11322F05DF804FB00B587B001900B468DF8033000
S113230000230493019B1B0A03F00F03013B092BD9
S113231032D801A252F823F0412300004D230000DB
S11323207923000079230000472300005323000091
S11323305D2300007923000067230000732300005D
S11323401B4B05931EE01B4B05931BE01A4B059397
S113235018E01A4B05930123049313E0184B0593DB
S1132360102304930EE0174B05934FF4803304932A
S113237008E0154B059305E041F6D7111348FFF724
S1132380F7FC11E0019B1B0B03F01F030393049B59
S1132390002B02D00498FFF785FF9DF803301A46FE
S11323A003990598FFF7FEFC07B05DF804FB00BF36
S11323B000400E40B0400E40C0400E40E0400E4091
S11323C0E8400E40F0400E4050410E4044C0000032
S11323D010B584B00190019B03F47813B3F5781F12
S11323E000F01B81B3F5781F00F22281B3F5481F7A
S11323F000F00E81B3F5481F00F21A81B3F5401FB7
S113240000F0E580B3F5401F00F21281B3F5381FE8
S113241000F0B680B3F5381F00F20A81B3F5101F3F
S113242000F0E980B3F5101F00F20281B3F5001F3C
S113243000F0B580B3F5001F00F2FA80B3F5F01F89
S113244079D0B3F5F01F00F2F380B3F5D01F00F09C
S1132450AB80B3F5D01F00F2EB80B3F5B01F7DD095
S1132460B3F5B01F00F2E480B3F5A01F68D0B3F554
S1132470A01F00F2DD80B3F5801F00F0C580B3F526
S1132480801F00F2D580B3F5602F00F0B980B3F55A
S1132490602F00F2CD80B3F5402F3DD0B3F5402F2F
S11324A000F2C680B3F5202F23D0B3F5202F00F21D
S11324B0BF80B3F5802F0DD0B3F5802F00F2B88024
S11324C0002B03D0B3F5003F17D0B1E0FFF7DAFAE1
S11324D00390B5E0FFF7D6FA03905B4BD3F80C31C9
S11324E01B0AC3F308030133039AB2FBF3F3039308
S11324F0A6E0FFF7C7FA0390A2E0FFF7C3FA039040
S1132500514BD3F808311B0AC3F308030133039A70
S1132510B2FBF3F3039393E0FFF7B4FA03904A4B4F
S1132520D3F814311B0A03F01F030133039AB2FBDF
S1132530F3F3039384E04548FFF71EFE03907FE026
S11325404348FFF719FE03903F4BD3F8303103F0B3
S11325500303039A22FA03F3039371E03B48FFF762
S11325600BFE0390384BD3F8203103F00F031846C9
S1132570FFF702FC0246039BB3FBF2F303935FE015
S11325803248FFF7F9FD03902F4BD3F820311B0994
S113259003F00303039A22FA03F3039350E02D4854
S11325A0FFF7EAFD03904BE02A48FFF7E5FD0390AF
S11325B0254BD3F828311B0903F003031846FFF712
S11325C0DBFB0246039BB3FBF2F3039338E02148A1
S11325D0FFF7D2FD03901C4BD3F828311B0A03F0FC
S11325E0030304331846FFF7C7FB0246039BB3FB00
S11325F0F2F3039324E01648FFF7BEFD03901FE0B7
S1132600FFF786FC03901BE0FFF762FC039017E0E2
S11326100020FFF7A5FC039012E0FFF733FA04460D
S11326200198FFF75BFE0346B4FBF3F3039307E063
S11326300023039341F607310748FFF799FB00BFD6
S1132640039B184604B010BD00400E4002001E005B
S1132650050024000300200044C0000000B585B03C
S11326600190019B1B0903F00F030293029B013BA2
S1132670092B00F2B88001A252F823F0A52600002D
S1132680B5260000C5260000E5260000E727000067
S1132690E7270000F5260000052700005F2700005B
S11326A0BF270000564BD3F800311B0A03F01F0369
S11326B00393A0E0524BD3F814311B0A03F01F0319
S11326C0039398E04E4BD3F800311B0E03F0010343
S11326D00393039B01331846FFF74EFB0346013B6C
S11326E0039388E0464BD3F80C311B0AC3F3080369
S11326F0039380E0424BD3F808311B0AC3F3080369
S1132700039378E0019B3F4A934204D0019B3E4AE5
S113271093420DD01AE03A4BD3F8203103F00F0363
S113272003930398FFF728FB0346013B039315E04B
S1132730334BD3F820311B0903F0030303930398AD
S1132740FFF71AFB0346013B039307E000230393BF
S113275041F67B312D48FFF70BFB00BF4BE0019B9B
S11327602B4A934204D0019B2A4A93420ED01DE087
S1132770234BD3F828311B0903F003030393039875
S1132780FFF7FAFA0346013B039317E01C4BD3F817
S113279028311B0A03F003030393039B04331846F5
S11327A0FFF7EAFA0346013B039307E00023039390
S11327B041F69F311548FFF7DBFA00BF1BE0019B90
S11327C0154A934206D10E4BD3F8303103F003037C
S11327D0039307E00023039341F6AE310B48FFF760
S11327E0C7FA00BF07E00023039341F6D33107483B
S11327F0FFF7BEFA00BF039B184605B05DF804FB63
S113280000400E408006160080162E0044C00000D2
S113281090171A0090273000A009140000B585B065
S1132820019001238DF80F30019B03F00F030293F5
S1132830029B013B072B00F2E78001A252F823F030
S113284061280000C328000001290000092A0000B3
S11328505329000091290000092A0000BB29000027
S1132860714BD3F8943003F00703023B052B23D8B4
S113287001A252F823F000BFA1280000992800000B
S113288091280000A9280000B9280000B128000000
S113289002238DF80F3013E003238DF80F300FE07F
S11328A004238DF80F300BE00B238DF80F3007E075
S11328B00C238DF80F3003E005238DF80F3000BF93
S11328C0ABE0594BD3F8803003F00703042B0ED050
S11328D0042B10D8012B02D0022B04D00BE00323CD
S11328E08DF80F300BE002238DF80F3007E00A2338
S11328F08DF80F3003E001238DF80F3000BF8CE01A
S1132900494BD3F8843003F00703013B032B1BD856
S113291001A252F823F000BF292900003129000048
S1132920412900003929000003238DF80F300FE0FE
S113293002238DF80F300BE00A238DF80F3007E0E7
S113294006238DF80F3003E001238DF80F3000BF0C
S113295063E0354BD3F8883003F00703042B0ED023
S1132960042B10D8012B02D0022B04D00BE003233C
S11329708DF80F300BE002238DF80F3007E00A23A7
S11329808DF80F3003E001238DF80F3000BF44E0D1
S1132990254B1B6F03F00103002B05D0012B07D13E
S11329A009238DF80F3007E007238DF80F3003E07B
S11329B001238DF80F3000BF2FE01B4BD3F85C319F
S11329C003F03003302B16D0302B18D8202B0ED028
S11329D0202B14D8002B02D0102B04D00FE001239D
S11329E08DF80F300FE007238DF80F300BE0042330
S11329F08DF80F3007E008238DF80F3003E0012332
S1132A008DF80F3000BF08E000238DF80F3041F639
S1132A1027710648FFF7ACF900BF9DF80F30184640
S1132A2005B05DF804FB00BF00400E4044C0000048
S1132A3000B58BB001900B468DF803300323099346
S1132A4003238DF823300023069300230593019B71
S1132A50112B1BD19DF80330042B03D1FFF750F841
S1132A6005900CE09DF80330052B08D100F08CF99B
S1132A700346BD4A934202D900F086F90590059BAE
S1132A80002B03D00021059800F05AFD019B03F0B0
S1132A900F030493049B013B072B00F25B8101A20B
S1132AA052F823F0C52A0000CF2B0000052C0000AB
S1132AB0552D0000E52B0000A92C0000552D000029
S1132AC0D52C00009DF80330023B0A2B48D801A204
S1132AD052F823F0012B00000D2B0000192B0000ED
S1132AE02B2B0000612B0000612B0000612B0000E8
S1132AF0612B0000552B00003D2B0000492B0000EA
S1132B000423099300238DF823302FE00323099332
S1132B1001238DF8233029E00223099302238DF841
S1132B2023309248FFF7A2F920E0012309930323FD
S1132B308DF823308D48FFF799F917E005230993A1
S1132B4003238DF8233011E00723099306238DF81E
S1132B5023300BE041F6E8718548FFF709F9FFE0FF
S1132B6041F6ED718248FFF703F9F9E09DF823304F
S1132B70062B06D09DF8233001220121184600F0CF
S1132B8089F9FFF785FAFFF7A5FB059B002B01D018
S1132B90FFF748F9774A099B5367FEF74FFF039005
S1132BA0FEF770FF03461846FFF760F9FFF750F988
S1132BB0034619460398FFF78DFA059B002B03D1B2
S1132BC00121002000F0BCFCFFF786FBC8E06A4B43
S1132BD006939DF80330062B04D142F22C0164487D
S1132BE0FFF7C6F8069B002B01D0069B00E0634B61
S1132BF006939DF80330062B04D142F23C015C4855
S1132C00FFF7B6F8069B002B01D0069B00E05C4B57
S1132C1006939DF80330013B092B3BD801A252F8DF
S1132C2023F000BF4D2C0000532C0000632C000047
S1132C30952C0000952C0000732C0000952C0000AE
S1132C40952C0000952C00008F2C00000023079386
S1132C5026E001220121002000F01CF90223079341
S1132C601EE001220121012000F014F90123079341
S1132C7016E0FEF707FF03461846FFF7F7F80122B0
S1132C8002214048FFF78EF80323079308E004234A
S1132C90079305E042F267013548FFF769F85FE002
S1132CA0069B079A1A605BE09DF80330072B02D05D
S1132CB0092B04D007E02F4B00221A6709E02D4BA3
S1132CC001221A6705E042F2F1012948FFF750F8A2
S1132CD046E045E09DF80330013B072B28D801A2CC
S1132CE052F823F0052D0000312D0000312D000095
S1132CF01B2D0000312D0000312D00000B2D000094
S1132D002B2D00000023079318E001220121042049
S1132D1000F0C0F80123079310E0012201210220F2
S1132D2000F0B8F80223079308E00323079305E0B3
S1132D3042F24F110E48FFF71BF811E00D4BD3F888
S1132D405C3123F03002079B1B010A491343C1F88D
S1132D505C3105E042F226210548FFF709F800BF7F
S1132D600BB05DF804FB00BF002D31010148E80100
S1132D7044C0000000400E4080400E4088400E4099
S1132D8084400E40B0400E40014B1B68184670470B
S1132D900C10002010B584B001901120FFF73EFD07
S1132DA00346042B04D142F20F513748FEF7E0FFEB
S1132DB001220021022000F06DF8019B5B78002BBA
S1132DC007D1019B9B78002B03D1019BDB78002B5F
S1132DD004D042F24B512C48FEF7CAFF0023039360
S1132DE0019B1B7C012B04D142F252512648FEF771
S1132DF0BFFF019B1B7C022B01D101230393234BB7
S1132E005B6A23F001022149039B13434B62019B3C
S1132E101B781A4608211E48FEF7C4FF019B9B88B5
S1132E20DB02019A527A1146184A0B43D362174BBC
S1132E301B6B03F07F62019BDB88DB021343019A67
S1132E40927A1A43019B1B7ADB0142EA0304019B39
S1132E501B7A1846FFF760F903460C4A23431363B1
S1132E60019B5B7B1A03019B9B7B1B011343019A10
S1132E70D27B1A43019B1B7B1B04044913434B6302
S1132E8000BF04B010BD00BF44C0000000400E40AD
S1132E9024400E4000B589B003468DF807300B4638
S1132EA08DF8063013468DF805309DF80730042B55
S1132EB03BD801A252F823F0152F0000032F000085
S1132EC0DF2E0000CD2E0000F12E0000012305931B
S1132ED00223049301230793002306932BE0042386
S1132EE0059308230493032307930223069322E004
S1132EF010230593202304930523079304230693A7
S1132F0019E04023059380230493072307930623A2
S1132F10069310E04FF4807305934FF40073049309
S1132F20092307930823069305E042F27461494894
S1132F30FEF71EFF8BE09DF80630002B6AD00023BD
S1132F408DF80F309DF80730022B1BD1FFF7FAF8EC
S1132F500346002B16D1404BDB6B03F48063002B3C
S1132F6004D142F283613B48FEF702FF01238DF84E
S1132F700F303A4B5B6A03F00103012B02D10120AD
S1132F80FFF7EAF8354A059B136600BF06993448F3
S1132F90FEF728FF0346002BF8D09DF80530002BE0
S1132FA055D000BF07992E48FEF71CFF0346002B9F
S1132FB0F8D09DF80730022B49D19DF80F30002B33
S1132FC045D0264B5B6A03F00103012B05D1012296
S1132FD02021022000F090F903E00021022000F0FB
S1132FE02DF9022000F03EF8029001220021022077
S1132FF0FFF750FF0299022000F074F8174A059B6E
S1133000136600BF07991648FEF7ECFE0346002B33
S1133010F8D01CE0114A049B136600BF0F4BD3F891
S113302090300121069A01FA02F21340002BF5D1E7
S11330309DF80530002B0AD000BF084BD3F8903020
S11330400121079A01FA02F21340002BF5D109B0CD
S11330505DF804FB44C0000000300E4000400E4008
S113306090400E4000B585B003468DF807309DF8BA
S11330700730013B032B24D801A252F823F000BFF0
S113308091300000B53000009D300000A9300000F0
S1133090124B1B6AC3F3080303931AE00F4B1B691B
S11330A003F07F03039314E00C4B9B6903F07F034D
S11330B003930EE0094BD3F89C30C3F30A03039344
S11330C007E0002303934FF41C510548FEF750FE1C
S11330D000BF039B184605B05DF804FB00400E409A
S11330E044C0000000B585B0034600918DF8073058
S11330F09DF80730013B032B00F28D8001A252F8AA
S113310023F000BF15310000C93100005531000023
S11331108F310000009BB3F5007F04D342F2257188
S11331204248FEF725FE009BC3F30803009300BF4B
S11331301A213F48FEF756FE0346002BF8D13D4BBB
S11331401B6A23F4FF7323F001033A49009A1343E3
S11331500B6266E0009B7F2B04D942F23271334844
S1133160FEF706FE009B03F07F03009300BF1821C7
S11331702F48FEF737FE0346002BF8D12D4B1B6971
S113318023F07F022B49009B13430B6149E0009B12
S11331907F2B04D942F24D712448FEF7E9FD009BD0
S11331A003F07F03009300BF19212148FEF71AFEA4
S11331B00346002BF8D11F4B9B6923F07F021D4966
S11331C0009B13438B612CE01A4BD3F8903003F02F
S11331D00403002B04D042F25D711448FEF7C8FDCD
S11331E0144B5B6A23F03003124A43F0100353621A
S11331F0009BDB0903F00F031846FEF78DFF0390D5
S11332000C4B1A6B0C4B1340009A1A430949039B4D
S113321013430B6305E042F277710448FEF7A8FDFF
S113322000BF00BF05B05DF804FB00BF44C0000050
S113323040410E4000400E4000F8FF0F00B585B03D
S113324003460A468DF8073013468DF806309DF87C
S11332500730022B04D042F28F712448FEF788FD18
S1133260FEF770FF0346002B03D14FF44003039392
S11332701DE09DF80630302B0DD0302B0FDC002BD9
S113328005D0202B0BD14FF4000303930FE04FF430
S1133290400303930BE04FF44003039307E0144B04
S11332A0039342F2AA711148FEF762FD00BF00BF0A
S11332B0104BD3F89020039B1340039A9A42F7D102
S11332C0039B03F48003002B0AD00A4BD3F8A030ED
S11332D003F48063002B14BF01230023DBB200E05E
S11332E00123184605B05DF804FB00BF44C000008C
S11332F0FF33E10700400E4000B583B003468DF86C
S113330007300B468DF8063013468DF805309DF8CE
S11333100730022B1AD19DF80630002B08D0114B30
S11333204FF48062C3F8A8200E4A9DF80630536615
S11333309DF80530002B0FD09DF806209DF807302E
S113334011461846FFF77AFF034607E042F2E071A0
S11333500548FEF70DFD00E000BF0123184603B049
S11333605DF804FB00400E4044C0000082B0EFF35F
S113337010830093009B019372B600BF019B184613
S113338002B0704782B00190019B002B01D162B65C
S113339000BF00BF02B0704784B0EFF31183019304
S11333A0019B039360230293029B83F3118800BF64
S11333B0039B184604B0704784B00190019B0393AB
S11333C0039B83F3118800BF00BF04B07047000063
S11333D0054B5B68C3F30803002B14BF01230023D0
S11333E0DBB21846704700BF00ED00E082B0EFF397
S11333F010830193019B03F00103012B05D0EFF32C
S113340011830093009B5F2B01D9012300E000236B
S113341003F00103DBB2184602B0704700B587B071
S1133420039002910192029B1F2B03D991210A4818
S1133430FEF79EFC039B03F1424303F58013DA007D
S1133440029B13449B000593059B019A1A6000BFDD
S113345007B05DF804FB00BFD0C0000084B0019049
S11334600091019B03F1424303F58013DA00009BB2
S113347013449B000393039B1B68184604B07047D6
S1133480054B1B6803F04003002B01D1012300E02E
S113349000231846704700BF3C300E4008B5FFF7C4
S11334A0EFFF034683F00103DBB2002B08D100BF1A
S11334B012210448FFF7D2FF0346002BF8D100E0A5
S11334C000BF08BD04300E4008B5FFF7E7FF044B0A
S11334D05B681B0C03F00303DBB2184608BD00BF96
S11334E000300E4082B00190024A019BD36200BFBB
S11334F002B0704700300E40014B5B6A18467047BB
S113350000300E40024B00225A6300BF704700BFD8
S113351000300E40024B4AF6E8525A6300BF70472F
S113352000300E4082B003468DF807309DF8073016
S1133530C3F10203102202FA03F3184602B07047E3
S113354000B585B001900B468DF80330FFF798FF66
S1133550034683F00103DBB2002B2AD1019B002B2D
S11335600FD1164BD3F800311B0A03F01F030133AC
S11335700293FEF787FA0246029B02FB03F30393CE
S113358001E0019B03930E4B1B78002B0AD0039B95
S11335900C4A934206D89DF803301946022000F0E5
S11335A013F807E09DF803301946002000F00CF8EA
S11335B000E000BF05B05DF804FB00BF00400E4012
S11335C0202C0020002D310110B586B003460A4698
S11335D08DF8073013468DF80630FFF751FF034688
S11335E083F00103DBB2002B3FD1FFF76DFF0346ED
S11335F01A469DF80730934239D01E4BD3F8003158
S11336001B0A03F01F0301330593FEF73BFA0490F2
S1133610049B059A02FB03F303939DF80730022BE6
S11336200CD1039B144A934204D940F231611348EC
S1133630FEF79EFB02210498FEF74CFD104C9DF80A
S113364007301846FFF76EFF034623619DF80630E6
S1133650002B01D0FFF722FF9DF80730002B07D184
S113366000210498FEF736FD02E000BF00E000BF31
S113367006B010BD00400E40002D310134C10000E1
S113368000300E4000B583B001900E4B1B6823F44C
S11336904072019B5B781B020A4913430B60019B38
S11336A05B78022B0AD1084B5B6A03F00053002BB2
S11336B004D040F26D610548FEF75AFB00BF03B029
S11336C05DF804FB00300E4000400E4034C10000A1
S11336D0012318467047000000B583B00C4BDB6E25
S11336E00B4A43F08073D36600210A48FFF7B6FE05
S11336F00190019B002B03D0042000F075FD02E033
S1133700002000F071FD00BF03B05DF804FB00BFB2
S113371000300E404C300E4000B58BB001230993AD
S1133720099B1B050893424BDB6C1B0A03F00F0338
S11337300793404B1B881A463E4B1B8828335B0873
S1133740134403F12801079B5A1C13469B0013449E
S1133750B1FBF3F3013B0693069B05930723049304
S1133760049A059B934228BF13460693069B1B06A7
S11337700693069B23F0E063002B04D040F68901F6
S11337802D48FEF7F5FA089B23F4E003002B04D040
S113379040F68A012848FEF7EBFA254BDB6C23F050
S11337A0EE620699089B0B4321491343CB64234BD8
S11337B0B3F90030002B36DB204BB3F90030ADF801
S11337C00E30BDF80E20BDF80E3028335B081344CC
S11337D003F12802079B01335900079B01335B085F
S11337E00B44B2FBF3F30293029B01930723009370
S11337F0009A019B934228BF13460293029B1B012C
S11338000293029B23F07003002B04D040F6A20124
S11338100948FEF7ADFA064B1B6D23F0700204490C
S1133820029B13430B6500BF0BB05DF804FB00BFA4
S113383000300E40182C002034C100001C2C002045
S113384082B001900B46ADF80230019B9AB2044B52
S11338501A80044ABDF80230138000BF02B07047DA
S1133860182C00201C2C002000B583B003468DF8D2
S113387007309DF80730002B02D0012B04D007E05D
S1133880084B094A9A6509E0064B084A9A6505E01F
S113389040F6CE010648FEF76BFA00BF00BF03B046
S11338A05DF804FB00300E4077402057372110B7F5
S11338B034C1000000B585B003468DF807300B46CF
S11338C08DF8063013468DF80530344BD3F880312B
S11338D003939DF80630032B1CD801A252F823F061
S11338E0F1380000F9380000033900000D390000F8
S11338F0039BDBB2039314E0039B1B0ADBB2039329
S11339000FE0039B1B0CDBB203930AE0039B1B0E2B
S1133910039306E040F612112148FEF729FA00232A
S113392038E09DF80530002B16D1039B1B0303934D
S1133930039B23F47043002B06D040F61D11184856
S1133940FEF716FA002325E0164BDB6E23F47042D3
S11339501449039B1343CB669DF80530012B18D102
S1133960039B1B030393039B23F47043002B06D098
S113397040F629110A48FEF7FBF900230AE0094B37
S1133980D3F8EC3023F470420649039B1343C1F887
S1133990EC300123184605B05DF804FBB081E00F5C
S11339A034C1000000300E4000B589B0039002918C
S11339B011461A460B468DF8073013468DF806302B
S11339C000230793002306939DF806301B029DF8FD
S11339D00720002A01D0012200E0002213430593AE
S11339E0059B40F2013293425CD0059B40F20132C8
S11339F0934200F29380059BB3F5407F00F08280F0
S1133A00059BB3F5407F00F28980059B40F20122BB
S1133A1093423BD0059B40F2012293427ED8059B02
S1133A20B3F5007F62D0059BB3F5007F76D8059B84
S1133A3040F2011293421DD0059BB3F5817F6DD2F4
S1133A40059BB3F5807F45D0059BB3F5807F65D892
S1133A50059B002B32D0059B012B5FD1374BD3F84C
S1133A6074310793079B1B0ADBB20693079BDBB2F7
S1133A70079359E0314BD3F874310793079B1B0E1E
S1133A800693079B1B0CDBB207934DE02B4BD3F83B
S1133A9078310793079B1B0ADBB20693079BDBB2C3
S1133AA0079341E0254BD3F878310793079B1B0E0E
S1133AB00693079B1B0CDBB2079335E01F4BD3F82F
S1133AC06C310793079B1B0ADBB20693079BDBB29F
S1133AD0079329E0194BD3F86C310793079B1B0E0E
S1133AE00693079B1B0CDBB207931DE0134BD3F823
S1133AF070310793079B1B0ADBB20693079BDBB26B
S1133B00079311E00D4BD3F870310793079B1B0EFD
S1133B100693079B1B0CDBB2079305E040F68E115E
S1133B200748FEF725F900BF039B079A1A60029B1A
S1133B30069A1A6000BF09B05DF804FBB081E00F7B
S1133B4034C1000000B585B003468DF80730424B00
S1133B505B6B012B0CBF012300238DF80F30FFF7A3
S1133B60D9FC00BF3C4B9B6F03F00103002BF9D140
S1133B70394B1B6C03F003030293029B002B04D00C
S1133B8001220D213548FFF749FC029BDBB29DF869
S1133B9007209A4209D19DF80730002B58D1002202
S1133BA00D212E48FFF73AFC52E0029B032B02D072
S1133BB0029B002B22D19DF80730022B03D09DF8E5
S1133BC00730012B1AD14FF40020FFF78BFC00BF04
S1133BD0214B9B6F03F00103002BF9D11E4B1B6C8F
S1133BE023F003031C4A43F00103136400BFFFF7EF
S1133BF083FC034603F40023002BF8D000BF164BCC
S1133C009B6F03F00103002BF9D1134B1B6C23F0C2
S1133C1003029DF80730104913430B6400BF0E4B99
S1133C209B6F03F00103002BF9D19DF80730002BA3
S1133C3014BF01230023DBB21A460D210748FFF706
S1133C40EDFB9DF80F30002B03D0FFF75BFC00E089
S1133C5000BF05B05DF804FB00300E4054300E4048
S1133C6000B585B001906C4B02229A636A4B9B6B42
S1133C7003F00F03022B06D040F64B216748FEF7F2
S1133C8077F80023C3E0FFF723FD019B1B89C82BB2
S1133C9004D940F655216148FEF76AF8019B9A88D9
S1133CA0019B1B899A4204D940F656215B48FEF7D2
S1133CB05FF8019BB3F90C30C82B04DD40F65721A3
S1133CC05648FEF755F8019B5B78012B09D1019BFF
S1133CD09B88C82B12D940F65B215048FEF748F860
S1133CE00CE0019B5B78022B08D1019B9B880A2B7B
S1133CF004D94FF426614948FEF73AF8019BDB8862
S1133D0042F21072934204D940F668214348FEF708
S1133D102FF8019BDB884A2B02D80023039315E07C
S1133D20019BDB88B3F5FA7F03D24FF080530393F2
S1133D300CE0019BDB8840F6C312934203D84FF09A
S1133D400053039302E04FF040530393324BDB6C78
S1133D5023F0405323F00103019AB2F90C20002A06
S1133D6001DB012100E00021039A0A432A4913439D
S1133D70CB64294BD3F8EC30274A43F44073C2F8A0
S1133D80EC30019B9A88264B1A80FFF7A5FC019B17
S1133D901B891A46019BB3F90C3019461046FFF7EC
S1133DA04FFD019B9B88184600F0ACF9019B9B7B5F
S1133DB01846FFF759FD019B5B8801220121184633
S1133DC000F032F8034683F00103DBB2002B06D087
S1133DD040F69F211148FDF7CBFF002317E00E4B5F
S1133DE0DB6B0D4A43F48063D363019B5B78184615
S1133DF0FFF7A8FE019B9B7A202B01D1012300E051
S1133E0000231A4605210748FFF708FB012318463B
S1133E1005B05DF804FB00BF00300E4034C1000063
S1133E201A2C00203C300E4010B594B001900B4683
S1133E308DF8033013468DF80230002313930023CA
S1133E40119309AB00221A605A609A6006AB0022F3
S1133E501A605A609A6003AB00221A605A609A6032
S1133E60A44B1B88ADF8083000238DF80A30019B61
S1133E70B3F5E16F06D3019B40F6B832934201D803
S1133E80012300E000238DF843309DF8433003F014
S1133E9001038DF843309DF8433083F00103DBB216
S1133EA0002B06D040F6EE219348FDF761FF002376
S1133EB01DE1019BB3F5E16F8CBF012300238DF855
S1133EC042309DF84230002B0AD04FF4E163139343
S1133ED040F6B8331193119A139BD31A129309E045
S1133EE04FF4966313934FF4E1631193119A139B68
S1133EF0D31A12939DF84230002B0BD07F4BD3F88A
S1133F0068310893089B1B0E0593089B1B0CDBB2BE
S1133F1008930AE0794BD3F868310893089B1B0A8D
S1133F20DBB20593089BDBB20893754BDB6C1B0F6C
S1133F30DBB203F00303DBB28DF808309DF80830E0
S1133F409DF8422003A906A8FFF72EFD6C4BD3F879
S1133F50EC301B0ADBB203F00303DBB28DF809304B
S1133F609DF809409DF8422003AB191D06AB181DAE
S1133F702346FFF719FD019A139BD31A0599089A52
S1133F808A1A03FB02F2129BB2FBF3F30B930B9A14
S1133F90089B13440B93019A139BD31A0399069A13
S1133FA08A1A03FB02F2129BB2FBF3F30993099AF8
S1133FB0069B13440993019A139BD31A0499079AF5
S1133FC08A1A03FB02F2129BB2FBF3F30A930A9AD6
S1133FD0079B13440A930B9A059B9A4213D80B9A96
S1133FE0089B9A420FD30A9A049B9A420BD80A9AC6
S1133FF0079B9A4207D3099A039B9A4203D8099ACA
S1134000069B9A4206D240F63C313B48FDF7B0FE8F
S113401000236CE09DF80230002B12D0384BDB6D8E
S113402023F4FE4323F002030B9A120213439DF878
S11340304220002A01D0022200E00022304913432A
S1134040CB659DF80330002B50D09DF808109DF8E7
S1134050423000221846FFF72DFC034683F001038B
S1134060DBB2002B06D040F64B312348FDF780FE2F
S113407000233CE09DF809109DF8423001221846C7
S1134080FFF718FC034683F00103DBB2002B06D0D4
S113409040F653311848FDF76BFE002327E0099BD7
S11340A00F930A9B0E930E9A0F9B934238BF1346AD
S11340B00993099B0D93E7230C930C9A0D9B934250
S11340C028BF134609930E4B5B6E23F4FF7323F052
S11340D00103099A520013439DF84220002A01D09B
S11340E0012200E00022064913434B6601231846CF
S11340F014B010BD98C1000034C10000B081E00FBD
S113410000300E4000B585B0019000230393344B7A
S11341101B6F03F007030293314BDB6C03F00103C5
S1134120002B14D0029B012B11D9019B132B02D815
S1134130042303933DE0019B132B05D9019B272BFB
S113414002D80823039334E01023039331E0244B73
S1134150DB6C03F00103002B14D1029B012B11D85B
S1134160019B092B02D80423039322E0019B092B12
S113417005D9019B132B02D80823039319E01023BC
S1134180039316E0164BDB6C03F00103002B0BD0FA
S1134190029B012B08D8019B272B02D808230393E9
S11341A007E01023039304E040F691310D48FDF736
S11341B0DFFD039B013B0393039B1A02039B1B0339
S11341C013430393064BDB6C23F47F420449039BA4
S11341D01343CB64FFF7A0FA00BF05B05DF804FBFE
S11341E000300E4034C1000000B585B003468DF8A0
S11341F0073000211248FFF731F90390039B002B8D
S113420003D19DF80730012B07D9039B002B04D160
S113421040F6AF310B48FDF7ABFD0B4B1B6F23F0A2
S113422007029DF80730084913430B67074B1B88A7
S11342301846FFF767FF00BF05B05DF804FB00BF39
S11342404C300E4034C1000000300E401A2C0020C7
S113425000B583B0144B02229A63134BDB6B124AF2
S113426043F48063D36300BF0F4B9B6F03F00103E0
S1134270002BF9D10C4B03221A640B4B1B6C032B40
S11342800CBF012300238DF807309DF80730002B65
S113429004D140F6DD310548FDF76AFD9DF807308D
S11342A0184603B05DF804FB00300E4034C1000032
S11342B000B587B0039002910192029B1F2B03D992
S11342C091210A48FDF754FD039B03F1424303F592
S11342D08013DA00029B13449B000593059B019A0B
S11342E01A6000BF07B05DF804FB00BF9CC100006A
S11342F084B001900091019B03F1C0630393039B7D
S1134300009A1A6000BF04B0704784B00190009115
S1134310019B03F180630393039B009A1A6000BF1F
S113432004B0704700B587B0039002910192FFF783
S11343301DF80590039B1A68029BDB431A40019900
S1134340029B0B401A43039B1A600598FFF71AF867
S113435000BF07B05DF804FB82B00190034A019BE3
S1134360C2F8243400BF02B0704700BF00A0004070
S113437000B583B0034600918DF807309DF80730EF
S1134380002B42D09DF80730012B3BD09DF807301D
S1134390022B34D09DF80730032B2DD09DF8073025
S11343A0042B27D09DF80730052B20D09DF807302B
S11343B0062B1AD09DF80730072B14D09DF8073030
S11343C0082B0ED09DF80730092B07D09DF8073035
S11343D00A2B01D107231AE0002318E04FF44043CD
S11343E015E00F2313E0002311E000230FE04FF644
S11343F0FF730CE000230AE04FF47F4307E040F62C
S1134400FF7304E04FF6C07301E040F2FF33009AFB
S1134410D34003F00103002B04D14FF479710D480C
S1134420FDF7A6FC9DF8072013465B0013441B010F
S11344300C3303F1804303F520430121009A01FA70
S113444002F211461846FFF760FF00BF03B05DF8A3
S113445004FB00BF00C2000000B583B00346009116
S11344608DF807309DF80730002B42D09DF80730B7
S1134470012B3BD09DF80730022B34D09DF8073038
S1134480032B2DD09DF80730042B27D09DF807303F
S1134490052B20D09DF80730062B1AD09DF8073045
S11344A0072B14D09DF80730082B0ED09DF8073049
S11344B0092B07D09DF807300A2B01D107231AE0F6
S11344C0002318E04FF4404315E00F2313E00023CA
S11344D011E000230FE04FF6FF730CE000230AE025
S11344E04FF47F4307E040F6FF7304E04FF6C073D8
S11344F001E040F2FF33009AD34003F00103002BA4
S113450004D140F213410D48FDF732FC9DF8072019
S113451013465B0013441B010C3303F1804303F582
S113452020430121009A01FA02F211461846FFF7CE
S1134530DFFE00BF03B05DF804FB00BF00C2000053
S113454000B583B0034600918DF807309DF807301D
S1134550002B27D09DF80730012B23D09DF807307E
S1134560022B1FD09DF80730032B1BD09DF807307A
S1134570042B1CD09DF80730052B13D09DF8073071
S1134580062B14D09DF80730072B10D09DF8073068
S1134590082B07D09DF80730092B03D09DF807306E
S11345A00A2B04D1009B23F00113002B03D07D219F
S11345B00B48FDF7DDFB9DF8072013465B00134411
S11345C01B0103F1804303F52043009A4FF00111CE
S11345D01846FFF7A7FE00BF03B05DF804FB00BF59
S11345E064C2000000B587B0029101921A460346E6
S11345F08DF80F3013468DF80E30002305939DF887
S11346000F30002B42D09DF80F30012B3BD09DF88A
S11346100F30022B34D09DF80F30032B2DD09DF892
S11346200F30042B27D09DF80F30052B20D09DF898
S11346300F30062B1AD09DF80F30072B14D09DF89D
S11346400F30082B0ED09DF80F30092B07D09DF8A2
S11346500F300A2B01D107231AE0002318E04FF48E
S1134660404315E00F2313E0002311E000230FE083
S11346704FF6FF730CE000230AE04FF47F4307E09A
S113468040F6FF7304E04FF6C07301E040F2FF33DD
S1134690029AD34003F00103002B03D1BF213B480E
S11346A0FDF766FB019A029B534023F00303002BA2
S11346B003D0C1213548FDF75BFB019B072B0FD8C5
S11346C0019B9B000F2202FA03F19DF80F20019B2E
S11346D09B0002FA03F31A462D48FFF723FE11E06C
S11346E0019B083B0593059B9B000F2202FA03F1F3
S11346F09DF80F20059B9B0002FA03F31A462548F8
S1134700FFF710FE019B072B10D8019B9B0003228F
S113471002FA03F1029B03F00302019B9B0002FADD
S113472003F31A461C48FFF7FDFD0FE0059B9B00B1
S1134730032202FA03F1029B03F00302059B9B0090
S113474002FA03F31A461548FFF7ECFD9DF80E3004
S11347501A4601991248FFF7ABFD9DF820301A461E
S113476001991048FFF7A4FD0122019B02FA03F30B
S11347701846FFF7F1FD9DF824301A4601990A48BE
S1134780FFF796FD00BF07B05DF804FB64C20000AC
S113479000A4004004A4004008A400400CA400406D
S11347A010A4004014A4004028A4004000B585B023
S11347B00291019303468DF80F3013468DF80E30A5
S11347C09DF80F30002B42D09DF80F30012B3BD0C9
S11347D09DF80F30022B34D09DF80F30032B2DD0D1
S11347E09DF80F30042B27D09DF80F30052B20D0D7
S11347F09DF80F30062B1AD09DF80F30072B14D0DC
S11348009DF80F30082B0ED09DF80F30092B07D0E0
S11348109DF80F300A2B01D107231AE0002318E07A
S11348204FF4404315E00F2313E0002311E000236D
S11348300FE04FF6FF730CE000230AE04FF47F43D0
S113484007E040F6FF7304E04FF6C07301E040F266
S1134850FF33029AD34003F00103002B04D140F24A
S11348601D113D48FDF784FA9DF80E30002B0FD042
S1134870019B002B06D09DF80F3002991846FFF7D4
S1134880EBFD05E09DF80F3002991846FFF770FD27
S1134890029B072B23D831499DF80F2013465B0058
S11348A013441B010B4404331A68029B9B000F2121
S11348B001FA03F3DB4313409DF80E10029A9200B1
S11348C001FA02F2114625489DF80F2019431346B8
S11348D05B0013441B0103440433196024E01F49A3
S11348E09DF80F2013465B0013441B010B4408334F
S11348F01A68029B083B9B000F2101FA03F3DB4378
S113490013409DF80E10029A083A920001FA02F23E
S1134910114612489DF80F20194313465B001344B7
S11349201B010344083319609DF80E30002B0FD18E
S1134930019B002B06D09DF80F3002991846FFF713
S11349408BFD05E09DF80F3002991846FFF710FD26
S113495000BF05B05DF804FB64C2000000A0004085
S113496000B587B0039002910192029B1F2B03D9DB
S113497091210A48FDF7FCF9039B03F1424303F537
S11349808013DA00029B13449B000593059B019A54
S11349901A6000BF07B05DF804FB00BFC8C2000086
S11349A000B583B001900091019B022B03D94C21E7
S11349B01748FDF7DDF9009B5B791F2B03D94F21C5
S11349C01348FDF7D5F9009B1B781A46009B5B78CA
S11349D09B001A43009B9B789B011A43009BDB7846
S11349E01B011A43009B1B79DB021A43009B5B7972
S11349F01B031A43009B9B795B0406491A43019BE2
S1134A0004331B010B441A6000BF03B05DF804FBC0
S1134A102CC300000020044000B583B003468DF889
S1134A2007309DF807301A4600210348FFF798FF26
S1134A3000BF03B05DF804FB0020044082B0019085
S1134A40019B1B78002B01D0012200E00022019B76
S1134A505B78002B01D0042300E000231343019A68
S1134A609278002A01D0102200E000221343019A18
S1134A70D278002A01D0202200E000221A43019BB0
S1134A801B791B021A43019B5B791B031343019A95
S1134A909279002A02D04FF4004200E000221A4327
S1134AA0019BDB791B041343019A127A002A02D07A
S1134AB04FF4003200E00022024913430B6000BFB0
S1134AC002B070470020044000B58BB007900691F7
S1134AD005920493069B0993049B002B01D100F0DB
S1134AE0FCF8099B002B01D1094B0993049B029309
S1134AF000230193012300930423059A099907983D
S1134B0000F008F80890089B18460BB05DF804FB09
S1134B101810002000B589B0059004910392029307
S1134B20039B002B0DD10C9B08221A700C9B2A4A64
S1134B305A600C9B4FF4D9629A600C9B274ADA6046
S1134B40FEE7029B002B05D0029B5A1E029B1340DA
S1134B50002B02D0029B002B01D1012300E0002393
S1134B60002B0DD10C9B08221A700C9B1A4A5A6018
S1134B700C9B40F2CB629A600C9B184ADA60FEE709
S1134B80FEF70AFC07900C9B01930B9B00930A9B76
S1134B90029A0399049800F023F806900C9B1B7862
S1134BA0002B11D00798FEF707FC0C9B16221A70F5
S1134BB00C9B094A5A600C9B40F2D7629A600C9B8A
S1134BC0064ADA60002303E00798FEF7F5FB069B2C
S1134BD0184609B05DF804FB90C3000008C4000047
S1134BE08AB00390029101920093019B002B01D0A3
S1134BF0019B00E00423009A934238BF13460993B3
S1134C00039B9B681A46099B5B421A40039B9B6863
S1134C101946099B013B0B40002B01D0099B00E086
S1134C20002313440893089A029B1A44009B5B4296
S1134C301A400899029B1944009B013B0B40002B2E
S1134C4001D0009B00E0002313440793039B5B689F
S1134C501A46039B9B68D31A01330693039B9B68F4
S1134C601A46079B9B1A0593069A059B9A4216D2ED
S1134C700A9B002B04D0059A069BD21A0A9B1A6041
S1134C800B9B16221A700B9B0F4A5A600B9B40F227
S1134C9022729A600B9B0D4ADA60002310E0079A97
S1134CA0039B9A600B9B00221A700B9B064A5A6066
S1134CB00B9B4FF4E5629A600B9B044ADA60089BF5
S1134CC018460AB0704700BF90C3000020C400001B
S1134CD008B500F017F800BF08BDFEE700B583B0C3
S1134CE004F0F6FB0190019B184603B05DF804FB49
S1134CF082B00190024A019B136000BF02B070476A
S1134D002450002008B5034B00221A6004F0BEFBB7
S1134D1000BF08BD2450002000BF7047F0B587B025
S1134D200190019B002B01D1FFF7D7FF7B4B5B6800
S1134D30002B2CD0794B1B68002B10D1774B196BAF
S1134D40764B5B689A00019B7548FFF7BDFE0346EE
S1134D50744A1360019B1B78002B04D0B5E16F4BA0
S1134D601B68704A13606F4B1B686F4A13606B4B70
S1134D705B686E4A1360694B5B689B006C4A136006
S1134D806C4B1A686A4B1B6813446A4A1360634B82
S1134D901B89002B24D0614B196B604B1B891A01B2
S1134DA0019B6548FFF790FE0346644A1360019B2C
S1134DB01B78002B40F08081604B1B68604A1360B5
S1134DC0564B1A895F4B1A80544B1B891B015E4A50
S1134DD01360584B1A685C4B1B681344554A1360A4
S1134DE04E4B5B69002B40D04C4B1B69002B10D100
S1134DF04A4B196B494B5B699A00019B5348FFF777
S1134E0063FE0346524A1360019B1B78002B04D0B7
S1134E105BE1424B1B694E4A1360404B1A7E4D4B7B
S1134E201A703E4BDB694C4A1360494B1B684B4A72
S1134E3013603A4B5B69394AD26802FB03F3484A70
S1134E40A2FB03235B09474A1360344B5B69464A60
S1134E501360324B5B699B00444A1360354B1A68FC
S1134E60424B1B681344334A13602C4B5B6B404A20
S1134E70136004F01FFC04F029FD0390039B002B36
S1134E800DD0019B01221A70019B3A4A5A60019B82
S1134E904FF4D7729A60019B374ADA6015E104F047
S1134EA071FE0246324B1B689A420DD2019B0922C5
S1134EB01A70019B2F4A5A60019B4FF4D9729A6071
S1134EC0019B2D4ADA60FEE704F05CFE0246284BA3
S1134ED01B689A4203D1294B00221A6015E004F0A2
S1134EE051FE034600221E46174632463B464FF00B
S1134EF000004FF0010106F079FC02460B461C4B02
S1134F001B6802FB03F31D4A1360194B1B68B3F5BE
S1134F107A7F37D81A4B00221A6048E02C10002000
S1134F203CC4000028500020345000203850002099
S1134F303C5000206850002050C400002C50002039
S1134F4040500020445000204850002064C4000019
S1134F50305000204C50002050500020545000206D
S1134F601F85EB51585000205C50002060500020F9
S1134F706450002080C400000CC500009050002044
S1134F808C500020524B1B6800221C4615462246BA
S1134F902B464FF000004FF0010106F027FC0246BB
S1134FA00B464FF47A7302FB03F34A4A13604A4BED
S1134FB000221A70494B00221A70494B00221A60D1
S1134FC0484B00221A60484B00221A70474B0022BB
S1134FD01A70474B00221A70019804F06BF80346CC
S1134FE0444AA2FB0323DB08434A1360019B1B785A
S1134FF0002B63D1414B1B68002B1DD0404B1B6819
S11350000593059B002B17D03C4B1B68049308E0C9
S1135010049B013B0493059B00221A60059B043307
S11350200593049B002BF3D1354B1B68334A12685C
S11350301146184603F04CFF324B00221A7002F05E
S1135040EBFA00F04BFC304B00221A602F4B00228D
S11350501A802F4B1B88002B06D0019801F0CEFD3F
S1135060019B1B78002B2BD12A4B00221A602A4B60
S113507000221A80294B00221A60294B00221A8030
S1135080284B00221A60284B00221A80019803F052
S11350905FFD019B1B78002B14D1019803F044F8A9
S11350A0019B1B78002B0FD100F068FFFFF734FE43
S11350B01E4B01221A7008E000BF06E000BF04E0A6
S11350C000BF02E000BF00E000BF07B0F0BD00BFBA
S11350D0645000208C500020745100209C54002007
S11350E0C0550020C4550020925100209351002047
S11350F0A4540020CDCCCCCCA054002038500020A7
S113510034500020BE550020785100207C510020EE
S1135110445000208C5100209051002094510020D4
S113512098510020A8540020AC5400207551002050
S113513010B586B0804B1B78012B00D0FEE77F4B67
S11351401B78002B40F0F480FEF726F905907C4B89
S11351501B788DF8133002F075FA03461A46784B23
S11351601A70774B1B78402B7FD0754B1B781946F0
S1135170744A0B465B000B449B0013441B68724A41
S113518013609DF81330402B03D103F01BF8AFF3E9
S113519000806D4B1A686D4B1B689A4225D1002024
S11351A003F048FC03468DF80B309DF80B30012BBF
S11351B004D0664B1B68184604F0A4FA644B1B78B1
S11351C0002B0ED0604B1B689B6F002B04D15E4BF1
S11351D01B68184600F034FD5B4B1B68184600F052
S11351E007FD0598FEF7E8F8A3E0594B1B78002B60
S11351F033D0584B1B689B6F002B2ED001AB194644
S1135200554804F057FC0390039B002B06D1514BE7
S11352101B68019A9A67504804F0D6FB4D4B1B68F3
S11352209B6F002B19D14B4B1B6893F833301A46F4
S113523013465B0013449B00424A1344184600F093
S113524009FC3F4B1B7819463E4A0B465B000B4456
S11352509B0013441B683C4A13603B4B1B68D3F808
S1135260C4200132C3F8C42002E0374B00221A6084
S11352703A4B1B680133394A1360314B1B78402B7E
S11352803DD0324B1A68304B1B689A422FD02F4BBB
S11352901B68002B2BD004F01BF902462B4B1B6818
S11352A0D3F8CC309A4208D304F012F90246274BC3
S11352B01B68D3F8CC30D31A08E004F009F902468D
S11352C0224B1B68D3F8CC30D31A013B1F4A126817
S11352D0C2F8C8301D4B1B68D3F8D0101B4B1B6899
S11352E0D3F8C820194B1B680A44C3F8D020164BC6
S11352F01C6804F0EDF80346C4F8CC3010E002F06A
S113530057FF124B1B68002B06D0104B1C6804F08F
S1135310DFF80346C4F8CC30FBF7E8FEAFF30080B7
S113532004F053F90598FEF747F8BFF36F8F00E0D8
S113533000BF06B010BD00BF745100209C54002073
S1135340935100209C510020C4550020C0550020DA
S1135350A4540020885000206C500020B455002034
S113536000B585B00190019B002B01D1FFF7B5FC7E
S11353703C4B1B78012B0DD0019B13221A70019B0F
S1135380394A5A60019B40F2F6329A60019B374ACF
S1135390DA60FEE70023ADF80E30BDF80E300133BD
S11353A0ADF80E30324B1B88BDF80E209A420DD357
S11353B0019B09221A70019B2B4A5A60019B40F2FF
S11353C001429A60019B294ADA60FEE7294B1B7867
S11353D0002B0DD0019B1F221A70019B224A5A6098
S11353E0019B40F204429A60019B204ADA60FEE786
S11353F0FDF7FCFF0346002B0DD0019B1F221A7002
S1135400019B194A5A60019B40F207429A60019B32
S1135410164ADA60FEE702F015F903461A46164BFF
S11354201A70154B1A78154B1A70134B1B781946C2
S1135430134A0B465B000B449B0013441B68114A40
S11354401360104B1B68104A13600A4B01221A7038
S113545002F0A4FE04F07AF8FFF73FFC00BF05B0A9
S11354605DF804FB7551002080C4000014C50000E1
S1135470BC5500207451002093510020925100200B
S11354809C510020C4550020C055002008B502F0EE
S1135490D9F80346402B01D0002300E0012318462D
S11354A008BD000000B587B003900B4601928DF84B
S11354B00B301D4B1B689DF80B2083F830201A4BD2
S11354C01B68002283F83120184B1B78002B06D070
S11354D0174B1B6800229A67164804F075FA124BA2
S11354E01B680199184600F037FC039B002B0DD074
S11354F0039B083305930C4B1B68039ADA620A4B2F
S11355001B681946059800F097F803E0064B1B68E2
S11355100022DA62044B1B681946039800F00CF869
S113552000BF07B05DF804FBC0550020A454002060
S1135530885000206C50002084B001900091019BA1
S1135540002B0FD0019B5A68009BC3F8F020019BED
S113555008330393039B1B680293029BDA68019B45
S1135560DA6116E0009B93F83030022B02D0072B4F
S113557005D009E0009B084AC3F8F02009E0009B2D
S1135580064AC3F8F02004E0009B054AC3F8F02063
S113559000BF00BF04B07047F4C40000FCC40000A6
S11355A008C5000084B001900091009B0C4AC3F828
S11355B0F020019B002B10D0019B08330393039B25
S11355C01B680293029B002B04D0029BDA68019BA8
S11355D0DA6102E0019B024ADA6100BF04B070475D
S11355E008C5000000B585B00190019BDB6A0393F8
S11355F0039B08330293029B1B685B6A002B09D050
S1135600019800F082F8019B039ADA6201990298EA
S113561000F012F800BF05B05DF804FB82B0019001
S1135620019B00221A60019B00225A60019B002208
S11356301A8100BF02B0704784B001900091009BB2
S113564093F833308DF80B30019B1B68002B0FD17E
S1135650019B01221A81009B00225A62009B0022B6
S11356609A62019B009A1A60019B009A5A6049E071
S1135670019B1B8901339AB2019B1A81019B1B6810
S1135680039309E0039B93F833309DF80B209A426F
S113569006D3039B5B6A0393039B002BF2D100E0C8
S11356A000BF039B002B0ED1009B00225A62019B7A
S11356B05A68009B9A62009B9B6A009A5A62019BFB
S11356C0009A5A601EE0039B9B6A002B0CD1009B3E
S11356D0039A5A62009B00229A62039B009A9A6280
S11356E0019B009A1A600DE0009B039A5A62039B87
S11356F09A6A009B9A62009B9B6A009A5A62039B77
S1135700009A9A6200BF04B0704786B00190019B72
S1135710DB6A002B46D0019BDB6A08330593059BAB
S11357201B685B6A002B06D1059B00221A60059B4F
S113573000225A6027E0019B9B6A002B09D1019B40
S11357405B6A0393039B00229A62059B039A1A6087
S113575019E0019B5B6A002B09D1019B9B6A0493AE
S1135760049B00225A62059B049A5A600BE0019B39
S11357709B6A0493019B5B6A0393049B039A5A629A
S1135780039B049A9A62059B1B89013B9AB2059B71
S11357901A81019B00225A62019B00229A62019B9A
S11357A00022DA6200BF06B07047000000B587B07F
S11357B0039002910192ADF80230029B93F83230CB
S11357C0072B17DC002B7FDB072B7DD801A252F8B7
S11357D023F000BFCF580000CF580000FB57000053
S11357E0FB570000CF580000CF5800006558000058
S11357F065580000FF2B6CD066E0029B019ADA67C3
S1135800029BBDF80220A3F88020029B089A5A64E8
S1135810039B002B02D00298FFF777FF02990398AD
S1135820FFF7C0FE029B93F83230032B0AD1029B90
S11358305833184604F0C8F80590059B002B01D096
S1135840FFF74BFA029800F06BF8029B002283F8F2
S11358503220029B002283F83120029B002283F82D
S1135860302037E0029B019ADA67029BBDF80220E0
S1135870A3F88020029B089A5A64039B002B02D051
S11358800298FFF742FF02990398FFF78BFE029BF1
S113589093F83230072B0AD1029B5833184604F090
S11358A093F80590059B002B01D0FFF716FA029B95
S11358B0042283F83220029B002283F83120029BC9
S11358C0002283F8302005E0FFF707FA02E000BF6A
S11358D000E000BF00BF07B05DF804FB82B0002306
S11358E0019313E0019A13465B0013449B000B4A97
S11358F013440093009B00221A81009B00221A602B
S1135900009B00225A60019B01330193019B3F2BB2
S1135910E8D900BF00BF02B0704700BF9C5100200F
S113592000B583B00190019B93F83330184601F021
S1135930A3FE019B93F83320094B1B789A4203D1B1
S1135940019800F04BF802E0019800F00BF8019B7D
S11359501846FBF718FF00BF03B05DF804FB00BF57
S11359609251002084B00190019B93F833301A4681
S113597013465B0013449B00174A13440393039B91
S11359801B68002B0FD1039B01221A81019B00226B
S11359901A61019B00225A61039B019A1A60039BBE
S11359A0019A5A6015E0039B1B8901339AB2039B49
S11359B01A81039B1A68019B1A61019B00225A6198
S11359C0039B1B680293029B019A5A61039B019AF1
S11359D01A6000BF04B070479C51002084B001904D
S11359E0019B93F833301A4613465B0013449B0023
S11359F0174A13440393039B1B68002B0FD1039B8B
S1135A0001221A81019B00221A61019B00225A6122
S1135A10039B019A1A60039B019A5A6014E0039B4A
S1135A201B8901339AB2039B1A81019B00221A61DC
S1135A30039B5B680293019B029A5A61029B019A41
S1135A401A61039B019A5A6000BF04B0704700BFFB
S1135A509C51002086B00190019B1A68019B5B68F1
S1135A609A423AD0019B1B681A69019B5B689A426F
S1135A7018D1019B1B680593019B5B680493059BEC
S1135A80049A5A61059B00221A61049B00225A6100
S1135A90049B059A1A61019B049A1A60019B059A5A
S1135AA05A601AE0019B1B680593019B5B68049391
S1135AB0059B1B690393039B00225A61059B0022EB
S1135AC01A61059B049A5A61049B059A1A61019B09
S1135AD0039A1A60019B059A5A6000BF06B070478A
S1135AE000B587B00190019B93F833301A461346F2
S1135AF05B0013449B00264A13440593019B5B6996
S1135B000493019B1B690393049B002B1FD1039BEC
S1135B10002B0FD1059B00221A81059B00221A60DD
S1135B20059B00225A60019B93F83330184601F01C
S1135B30C9FD1FE0059B1B89013B9AB2059B1A8195
S1135B40039B00225A61059B039A1A6012E0059B8D
S1135B501B89013B9AB2059B1A81049B039A1A6123
S1135B60039B002B03D1059B049A5A6002E0039B1C
S1135B70049A5A61019B00225A61019B00221A6116
S1135B80019B1846FBF71DFE00BF07B05DF804FB40
S1135B909C51002000B585B001900091009B0393B7
S1135BA0104B1B78012B19D1FDF7F6FB0290039BD8
S1135BB000229A670C4B1B6893F833301A4613463D
S1135BC05B0013449B00094A13441846FFF742FF45
S1135BD00298FDF7F1FBFFF7ABFA00E000BF05B058
S1135BE05DF804FBA4540020885000209C51002040
S1135BF000B585B00390039B002B12D00C4B1B788F
S1135C00012B10D1039B996F002301930023009370
S1135C10039B084A084803F0A9FE084A039B136043
S1135C2002E000BF00E000BF05B05DF804FB00BF68
S1135C30A4540020955B00006C5000208850002084
S1135C402DE9F04F93B01190119B002B77D03F4B6F
S1135C501B78012B75D1119B5B6F002B3CD13C4B06
S1135C601B6800220093019203F08CFF034600227C
S1135C7002930392DDE900452B46DDE902894246A1
S1135C8002FB03F24B46214601FB03F31344224675
S1135C904146A2FB01673B441F462E4B1B68013B58
S1135CA0002204930592DDE904120B46F3180693CF
S1135CB0134647EB03030793264B1B680022089304
S1135CC00992DDE90823DDE9060105F08FFD0246AE
S1135CD00B46119B9A6735E0119B5B6F00229A4635
S1135CE0934603F04FFF034600229846914608FB73
