S01E00004543454E333735335F46696E616C50726F6A5F426F726B2E73333718
S2140000000010002031B2000079B2000079B2000082
S21400001079B2000079B2000079B2000079B200002F
S21400002079B2000079B2000079B2000079B200001F
S21400003079B2000079B20000AB37000079B2000058
S21400004079B2000079B2000079B2000079B20000FF
S21400005079B2000079B2000079B2000079B20000EF
S21400006079B2000079B2000009EA000079B2000017
S21400007079B2000079B2000079B2000079B20000CF
S21400008079B2000079B200002DEA000079B20000D3
S21400009079B2000079B2000079B2000079B20000AF
S2140000A079B2000079B2000079B2000079B200009F
S2140000B079B2000079B20000B92E000079B20000D3
S2140000C079B2000079B2000079B2000079B200007F
S2140000D079B2000079B2000079B2000079B200006F
S2140000E079B2000079B2000079B2000079B200005F
S2140000F079B2000079B2000079B2000079B200004F
S21400010079B2000079B2000079B2000010B5054C53
S214000110237833B9044B13B10448AFF300800123AE
S214000120237010BD34110020000000003C050100C3
S21400013008B5034B1BB103490348AFF3008008BD65
S21400014000000000381100203C050100A3F5803AAD
S214000150704700BF174B002B08BF134B9D46FFF799
S214000160F5FF00218B460F461348144A121A0CF06E
S214000170A7FA0E4B002B00D098470D4B002B00D053
S21400018098470020002104000D000D48002802D0EA
S2140001900C48AFF300800CF061FA2000290000F054
S2140001A05FF80CF047FA00BF0000080000000000EF
S2140001B0000000000010002034110020FCA00020E9
S2140001C00000000000000000024BDB6C1B0EDBB2E0
S2140001D018467047B081E00F00B583B01A4B012275
S2140001E05A64FFF7F1FF03468DF807309DF8073095
S2140001F0002B0CD1154B4AF6E8521A60144B1B68BC
S214000200134A43F004031360104B00221A609DF853
S2140002100730012B05D80F4B1B680E4A43F40053DA
S21400022013600D4B1B6A23F444130B4A43F48813E4
S21400023013620A4B1B68094A43F4F843136000BF75
S21400024003B05DF804FB00BF00000E4090310E4086
S21400025098310E4064310E4000400E40A4310E40EE
S21400026030B58FB02A4B0AAC0FCB84E80F00294B71
S21400027005AC1D460FCD0FC42B682380FFF7ACFFDF
S21400028000238DF8103000238DF811300AAB184685
S21400029009F04EFF02238DF8113004AB184609F022
S2140002A059FC05AB184608F0DDFF012201210320AA
S2140002B009F058F80521112008F022FE002200213E
S2140002C0022009F04FF800F097F900F07DF807F0EB
S2140002D099FE6B46184603F007FC9DF80030002B8D
S2140002E003D02E210C4807F0ABFF00F017F86B4642
S2140002F0184603F019FF9DF80030002B03D0342178
S214000300054807F09DFF002318460FB030BD00BF1C
S21400031098EC0000A8EC000088EC000008B500F09F
S214000320A5F900F097FB01F049FE00BF08BD0000EC
S214000330024BDB6C1B0EDBB218467047B081E00F39
S21400034000B583B01A4B01225A64FFF7F1FF03464B
S2140003508DF807309DF80730002B0CD1154B4AF668
S214000360E8521A60144B1B68134A43F004031360E8
S214000370104B00221A609DF80730012B05D80F4B52
S2140003801B680E4A43F4005313600D4B1B6A23F49C
S21400039044130B4A43F4881313620A4B1B68094A3A
S2140003A043F4F843136000BF03B05DF804FB00BFDE
S2140003B000000E4090310E4098310E4064310E40E1
S2140003C000400E40A4310E4030B589B0184B6C4644
S2140003D01D460FCD0FC42B68238011230793FFF70C
S2140003E0AFFF0AF09DF96B46184608F03BFF042164
S2140003F0079808F085FD01210E4808F0E3F901236F
S2140004008DF81B3003238DF81A300B4B05939DF89F
S2140004101A301946059808F073FD9DF81B30002227
S2140004200121184608F09EFF00BF09B030BD00BF8E
S214000430BCEC000030253E000500240084B00346D6
S2140004408DF807309DF807300D4A52F82330039395
S2140004509DF807300A4A52F823309B08039AD31AAD
S21400046003939DF80730074A52F82330039A9A42BE
S21400047001D9012300E00023184604B0704700BFEE
S214000480641100205411002000B589B003468DF891
S21400049007309DF8073019464FF080400EF06EFB8F
S2140004A01A4B00225A621A4B00221A70174B01226E
S2140004B05A6003AB1A4600210A2007F0D1FB134B03
S2140004C002225A60114B5B6A0793124B1B78DBB211
S2140004D01946114A079B42F821300E4B1B78DBB2B7
S2140004E01A460E4B53F82230079A9A4207D9094B00
S2140004F01B78DBB21946094A079B42F82130044BA9
S21400050001221A7000BF09B05DF804FB00840140A8
S21400051051110020501100205411002064110020B9
S21400052008B54FF080400EF069FB0F4B00221A70A2
S2140005300FE00D4B1B78DBB21A460C4B9B5C184643
S214000540FFF7A2FF084B1B78DBB20133DAB2064B8B
S2140005501A70054B1B78DBB2032BEAD94FF08040AC
S2140005600EF02EFB00BF08BD50110020D0EC00009E
S21400057030B587B0174B6C461D460FCD0FC495E8B7
S214000580030084E803000121134808F01BF9012149
S214000590124808F017F90121114808F013F9012153
S2140005A04FF48A4008F00EF90E4B0F4A1A600D4BB6
S2140005B04FF6FF72DA610B4B0C4A1A670C4B0D4A6A
S2140005C01A656B4619464FF080400EF07BFA00BF66
S2140005D007B030BDD4EC0000404105000012040016
S2140005E000A20400008401400000010A0100002A65
S2140005F000600E400003100008B500220021012014
S21400060008F0B0FE00220021002008F0ABFE0A2110
S214000610064808F075FC0121054808F0D3F80121CA
S214000620044808F0CFF800BF08BD00BF02001E0057
S21400063030253E0000350A0082B003468DF80730AC
S2140006409DF90730002B0CDB9DF8073003F01F02E6
S21400065005499DF907305B09012000FA02F241F8CE
S214000660232000BF02B0704700E100E000B583B071
S214000670002105200AF0CCF90023042204210520DD
S2140006800AF0FCFA002105200AF0C2F90023042231
S214000690052105200AF0F2FA0123019301230093B5
S2140006A000230622062105200AF004FA01230193FE
S2140006B00123009300230722072105200AF0FAF9F8
S2140006C00A20FFF7B9FF1220FFF7B6FF00BF03B0FE
S2140006D05DF804FB84B001900091019B03F1424356
S2140006E003F58013DA00009B13449B000393039BDF
S2140006F01B68184604B0704700B583B003460091E7
S2140007008DF807309DF80730002B42D09DF8073053
S214000710012B3BD09DF80730022B34D09DF80730D4
S214000720032B2DD09DF80730042B27D09DF80730DB
S214000730052B20D09DF80730062B1AD09DF80730E1
S214000740072B14D09DF80730082B0ED09DF80730E5
S214000750092B07D09DF807300A2B01D107231AE092
S214000760002318E04FF4404315E00F2313E0002366
S21400077011E000230FE04FF6FF730CE000230AE0C1
S2140007804FF47F4307E040F6FF7304E04FF6C07374
S21400079001E040F2FF33009AD34003F00103002B40
S2140007A004D140F2B5310B4807F04AFD9DF807200A
S2140007B013465B0013441B011C3303F1804303F50F
S2140007C0204300991846FFF785FF0346184603B0F6
S2140007D05DF804FBECEC0000034B1B7803F0010310
S2140007E0DBB21846704700BF74110020034B1B781D
S2140007F003F00103DBB21846704700BF75110020F6
S21400080008B506210520FFF777FF0346DAB2024B4C
S2140008101A7000BF08BD00BF7411002008B507217C
S2140008200520FFF769FF0346DAB2024B1A7000BFD5
S21400083008BD00BF7511002084B001900091019B97
S21400084003F1C0630393039B009A1A6000BF04B0D1
S214000850704784B001900091019B03F1806303937D
S214000860039B009A1A6000BF04B0704700B583B0BF
S214000870034600918DF807309DF80730002B42D0D4
S2140008809DF80730012B3BD09DF80730022B34D063
S2140008909DF80730032B2DD09DF80730042B27D06A
S2140008A09DF80730052B20D09DF80730062B1AD070
S2140008B09DF80730072B14D09DF80730082B0ED074
S2140008C09DF80730092B07D09DF807300A2B01D179
S2140008D007231AE0002318E04FF4404315E00F23E7
S2140008E013E0002311E000230FE04FF6FF730CE047
S2140008F000230AE04FF47F4307E040F6FF7304E06E
S2140009004FF6C07301E040F2FF33009AD34003F085
S2140009100103002B04D14FF479710D4807F090FCC9
S2140009209DF8072013465B0013441B010C3303F1AC
S214000930804303F520430121009A01FA02F2114692
S2140009401846FFF786FF00BF03B05DF804FB00BF44
S21400095050ED000000B583B0034600918DF80730D7
S2140009609DF80730002B42D09DF80730012B3BD076
S2140009709DF80730022B34D09DF80730032B2DD07E
S2140009809DF80730042B27D09DF80730052B20D084
S2140009909DF80730062B1AD09DF80730072B14D089
S2140009A09DF80730082B0ED09DF80730092B07D08E
S2140009B09DF807300A2B01D107231AE0002318E020
S2140009C04FF4404315E00F2313E0002311E000230B
S2140009D00FE04FF6FF730CE000230AE04FF47F436E
S2140009E007E040F6FF7304E04FF6C07301E040F204
S2140009F0FF33009AD34003F00103002B04D140F2EA
S214000A0013410D4807F01CFC9DF8072013465B00B9
S214000A1013441B010C3303F1804303F520430121EB
S214000A20009A01FA02F211461846FFF705FF00BFCA
S214000A3003B05DF804FB00BF50ED0000044B1B69DB
S214000A40034A23F00403136130BF00BF704700BFA2
S214000A5000ED00E000B58FB001F0B0FA01F0D4FB75
S214000A600AAB0893022307930023069300230593FB
S214000A70002304934FF48063039366230293A64BEC
S214000A800193052300930023A44AA549A54806F030
S214000A9055FA9DF82830002B03D09021A24807F085
S214000AA0CFFB0AAB08930223079300230693002389
S214000AB00593002304934FF4806303936623029305
S214000AC09A4B0193062300930023994A99499A4822
S214000AD006F034FA9DF82830002B03D0A021924867
S214000AE007F0AEFB0AAB0893022307930023069396
S214000AF000230593002304934FF480630393662337
S214000B0002938E4B01930A23009300238C4A8D494F
S214000B108D4806F013FA9DF82830002B03D0AF213D
S214000B20814807F08DFB0AAB089302230793002346
S214000B30069300230593002304934FF40073039356
S214000B4033230293814B01930B2300930023804AA7
S214000B508049814806F0F2F99DF82830002B03D032
S214000B60BE21714807F06CFB0AAB0893022307937B
S214000B700023069300230593002304934FF4007389
S214000B80039333230293754B01930B2300930023A7
S214000B90734A7449744806F0D1F99DF82830002B42
S214000BA003D0CD21604807F04BFB0AAB0893022325
S214000BB007930023069300230593002304934FF422
S214000BC00073039333230293684B01930C23009323
S214000BD00023674A6749684806F0B0F99DF8283050
S214000BE0002B03D0DC21504807F02AFB0AAB089301
S214000BF00223079300230693002305930023049300
S214000C0060230393092302935C4B01930B23009309
S214000C1000235B4A5B495C4806F090F99DF8283053
S214000C20002B03D0EB21404807F00AFB0AAB0893E1
S214000C3002230793002306930023059300230493BF
S214000C406023039309230293504B01930A230093D6
S214000C5000234F4A4F49504806F070F99DF8283057
S214000C60002B03D0FA21304807F0EAFA0AAB0893C3
S214000C70022307930023069300230593002304937F
S214000C806023039309230293444B01930B230093A1
S214000C900023434A4349444806F050F99DF828305B
S214000CA0002B04D040F209111F4807F0C9FA0AAB1E
S214000CB0089302230793002306930023059300233B
S214000CC004936023039309230293384B01930A236A
S214000CD000930023364A3749374806F02FF99DF827
S214000CE02830002B04D04FF48C710F4807F0A8FA78
S214000CF00AAB089302230793002306930023059369
S214000D000023049360230393092302932B4B019340
S214000D1020230093002353E0F0140020F90D000078
S214000D20B4ED000000140020C4ED0000E025002013
S214000D30E9100000E0ED0000F0240020D03600208E
S214000D40ED160000F0ED0000E0350020C047002062
S214000D5089170000FCED0000D0460020B0500020AF
S214000D603919000008EE0000C04F0020A0590020EE
S214000D70A51B000014EE0000B05800209062002072
S214000D80D91B000024EE0000A061002000650020B2
S214000D90CD1C00002CEE00001064002070670020C0
S214000DA0C51D000038EE000080660020E0690020C7
S214000DB0B91E000040EE0000F0680020506C0020D5
S214000DC0084A0949094806F0B9F89DF82830002B6A
S214000DD004D040F22911064807F032FA00BF0FB0DF
S214000DE05DF804FBB11F00004CEE0000606B0020B5
S214000DF0C4ED00000000000030B595B0039000235D
S214000E000D9300230C93AC4BDB6B18460AF040FFA7
S214000E1002460B46CDE912234FF00002A74BCDE960
S214000E201023A54B1B6B0F93A34BDB6A0E9300237B
S214000E300B936FF008030A9305AB1A460021642053
S214000E4006F00EFF9DF81430002B04D04FF49E7170
S214000E509B4807F0F5F905AB00930023002200211C
S214000E60984804F09FFE9DF81430002B04D040F202
S214000E703F11934807F0E4F9934B1B785BB20D9350
S214000E8005AB1A464FF400718E4805F061F89DF8E0
S214000E901430002B04D04FF4A271894807F0D0F923
S214000EA005AB0093002300220021884804F07AFE58
S214000EB09DF81430002B04D040F24711804807F00C
S214000EC0BFF9834BDB68824A526802FB03F30C933C
S214000ED005AB1A464FF400717C4805F039F89DF8CA
S214000EE01430002B04D04FF4A671754807F0A8F90B
S214000EF00D980AF0CDFE02460B46104619460BF03A
S214000F00E7FB04460D460C980AF0C2FE02460B4666
S214000F10204629460AF026FF02460B46104619468A
S214000F200BF0BAF903460B930D980AF0B1FE024691
S214000F300B46104619460BF01BFC04460D460C9853
S214000F400AF0A6FE02460B46204629460AF00AFF8D
S214000F5002460B461046194655A3D3E900230AF06D
S214000F6049FD02460B46104619460BF095F9034616
S214000F700A934FF000024FF00003DDE912010AF079
S214000F803BFD02460B4614461D460B980AF080FEB3
S214000F904FF000024F4B0AF0E5FE02460B461046A5
S214000FA019464FF000024FF000030AF0DBFE02463F
S214000FB00B46204629460AF01FFD02460B46CDE9A1
S214000FC012234FF000024FF00003DDE910010AF093
S214000FD013FD02460B4614461D460A980AF058FEB4
S214000FE04FF000023B4B0AF0BDFE02460B46104691
S214000FF019464FF000024FF000030AF0B3FE024617
S2140010000B46204629460AF0F7FC02460B46CDE979
S214001010102305AB00930023002200212E4804F085
S214001020C1FD9DF81430002B04D04FF4AC71244859
S21400103007F006F9294A0B9B1361284A0A9B53615D
S214001040DDE912010BF028F90346244A9360DDE936
S21400105012010BF021F90346204AD3601F4A0F9B6A
S21400106013601E4A0E9B536005AB1A464FF4007180
S214001070194804F06DFF9DF81430002B04D04FF48F
S214001080B1710F4807F0DCF805AB1A464FF4007153
S214001090134805F0E1FB09909DF81430002B3FF44F
S2140010A0CBAE40F26511064807F0CAF8C4E600BFAA
S2140010B01F85EB51B89E2340186E0020000060404C
S2140010C0C4ED0000E0120020146E00201013002073
S2140010D0046E00200000E03F40130020586E002001
S2140010E09012002000000000F0B59FB003904FF073
S2140010F000024FF00003CDE91A234FF000024FF034
S2140011000003CDE918234FF000024FF00003CDE9AD
S21400111016234FF000024FF00003CDE914234FF0E2
S21400112000024FF00003CDE912234FF000024FF00B
S2140011300003CDE9102300230F934FF000024FF079
S2140011400003CDE90C2300238DF82F3000238DF803
S214001150773000238DF8763005AB0093002300220D
S2140011600021BD4805F0E0F90A909DF81430002BE8
S21400117004D040F27D11B94807F062F800238DF8DC
S214001180773005AB0093002300220021B44804F01A
S21400119009FD9DF81430002B04D04FF4C171AF4800
S2140011A007F04EF8AF4B1B6918460AF071FD024671
S2140011B00B46CDE91A23AB4B1B6818460AF068FDB0
S2140011C002460B46CDE91823A64B9B6818460AF044
S2140011D05FFD02460B46CDE91623A24B5B69184617
S2140011E00AF056FD02460B46CDE914239D4B5B687C
S2140011F018460AF04DFD02460B46CDE91223994BE0
S214001200DB6818460AF044FD02460B46CDE910237B
S21400121005AB1A464FF40071914804F099FE9DF80C
S2140012201430002B04D04FF4C6718C4807F008F831
S21400123005AB00930023002200218B4804F0B2FC8B
S2140012409DF81430002B04D040F28F11834806F02E
S214001250F7FF864B1B785BB20F9305AB1A464FF42D
S2140012600071814804F074FE9DF81430002B04D001
S2140012704FF4CA71794806F0E3FFDDE91A23DDE989
S2140012801A010AF06FFD02460B4614461D466EA371
S214001290D3E90023DDE914010AF0AEFB02460B4653
S2140012A016461F4668A3D3E90023DDE914010AF0B9
S2140012B0A3FB02460B46304639460AF053FD02466B
S2140012C00B46204629460AF097FB02460B46104678
S2140012D019464FF00002664B0BF094FACDE90C016C
S2140012E005AB0093002300220021624804F05AFC5C
S2140012F09DF81430002B04D040F29911574806F0A0
S2140013009FFF53A3D3E90023DDE90C010AF054FE46
S21400131002460B46104619460AF0E6FF03469AB206
S214001320554B5A80544B40F6B8321A8005AB1A46D5
S2140013304FF400714F4804F00BFE9DF81430002B5C
S21400134004D040F29F11454806F07AFF4B4B5B6B8A
S21400135018460AF08DFC02460B46DDE90C010AF041
S21400136087FF0346002B68D005AB009300234FF49D
S21400137000420021424805F0D7F80A909DF8143044
S214001380002B04D040F2A311344806F059FF012385
S2140013908DF82F3005AB0093002300220021324841
S2140013A004F000FC9DF81430002B04D040F2A71186
S2140013B02A4806F045FF05AB0093002300220021D3
S2140013C0304804F0EFFB9DF81430002B04D04FF4A7
S2140013D0D571224806F034FF2B4B00225A609DF848
S2140013E0773043F002038DF8773005AB0093002387
S2140013F0002200211F4804F0D5FB9DF81430002B76
S21400140004D04FF4D871154806F01AFF1A4B002284
S2140014105A80194B40F6B8321A8005AB1A464FF47C
S2140014200071144804F094FD9DF81430002B04D08D
S2140014304FF4DB71094806F003FF4FF00002134B30
S21400144026E000BFAFF300801F85EB51B89E234017
S214001450676666666686484090120020C4ED000007
S21400146040130020586E0020E0120020146E00206A
S2140014700000E03FD0130020006E0020186E002011
S214001480B812002010130020046E002000006040F8
S214001490DDE916010AF0D8FE0346002B1CD04FF0FB
S2140014A000024FF00003DDE916010AF0EBFE0346EA
S2140014B0002B11D04FF000024FF00003DDE91001C1
S2140014C00AF0E0FE0346002B06D09DF8773043F086
S2140014D001038DF87730ADE04FF000024FF00003C7
S2140014E0DDE910010AF0BAFE0346002B00F0A280E8
S2140014F04FF00002744BDDE916010AF0A5FE034624
S214001500002B00F097804FF000024FF00003DDE95B
S21400151016010AF0B7FE0346002B00F08B800F9BE7
S21400152013F1090F47DB0F9B092B44DCDDE91201A1
S2140015300AF0B2FE034618460BF078F80346132B63
S21400154039DCDDE918010AF0A7FE034618460BF061
S2140015506DF80346042B2EDC9DF8773043F0040329
S2140015608DF8773005AB0093002300220021574802
S21400157004F018FB9DF81430002B04D040F2BF1185
S214001580534806F05DFE534B01225A80514B4FF4F0
S2140015907A721A8005AB1A464FF400714B4804F075
S2140015A0D7FC9DF81430002B44D040F2C5114848B3
S2140015B006F046FE3EE09DF8773043F008038DF8CF
S2140015C0773005AB1A464FF40071434805F044F9EE
S2140015D00A909DF81430002B04D04FF4E5713C4877
S2140015E006F02EFE05AB00930023002200213748AC
S2140015F004F0D8FA9DF81430002B04D040F2CD1138
S214001600334806F01DFE334B00225A80314B4FF410
S2140016107A721A8005AB1A464FF400712B4804F014
S21400162097FC9DF81430002B04D040F2D3112848C4
S21400163006F006FE9DF9771005AB0022274803F05A
S214001640D9FF09909DF97630312B36DD00238DF8D1
S214001650763000238DF82F3005AB1A464FF4007114
S2140016601F4805F0F9F80A909DF81430002B04D0B6
S2140016704FF4F171164806F0E3FD05AB1A464FF439
S2140016800071184804F064FC9DF81430002B04D058
S21400169040F2E5110E4806F0D3FD05AB1A464FF4AE
S2140016A00071114804F054FC9DF81430002B04D04F
S2140016B04FF4F471064806F0C3FD9DF8763001330A
S2140016C0DBB28DF8763047E500006040D01300208E
S2140016D0C4ED0000006E0020681200207811002083
S2140016E0B8120020E01200201013002000B58BB0C6
S2140016F003900AF071F90990099B002B04D040F280
S214001700F3111D4806F09CFD002001F06FFD0990C6
S214001710099B002B04D04FF4FB71174806F090FD90
S214001720164801F02DFC0990099B002B04D040F2CE
S214001730F911114806F084FD104801F0ADFC10497F
S2140017400E4801F032FD01F047FF04AB0193002381
S21400175000934FF4847300220F210A4803F096FC8E
S21400176008909DF81030002BEFD04FF4037102481C
S21400177006F066FDE9E700BFC4ED0000D06D00206E
S21400178024F400007811002010B58CB003900323D9
S2140017908DF8263000230B9300230A9300238DF840
S2140017A027305E4B1B685E4A13605C4B9B695C4A45
S2140017B0D36004AB1A4600214FF4FA7006F050FAD4
S2140017C09DF81030002B04D04FF40A71554806F0EF
S2140017D037FD04AB0093002300220021524804F09A
S2140017E0A3FE08909DF81030002B04D040F22B2169
S2140017F04C4806F025FD04AB1A464FF400714A48E3
S21400180005F02AF80890FEF7FBFFFFF707F8FEF74B
S214001810EDFF03465B005CB2FEF7DEFF03465BB2FD
S21400182023435BB28DF826309DF82630012B0ED16F
S2140018300B9B5A2B1DD80B9B0A330B930B9A134604
S2140018409B0013440A9301238DF8273011E09DF87E
S2140018502630022B0DD10B9B092B0AD90B9B0A3B7A
S2140018600B930B9A13469B0013440A9301238DF89F
S21400187027309DF82730002B9BD004AB0093002325
S21400188000220021294804F08DF99DF81030002B25
S21400189004D040F24321234806F0D2FC204A0B9B9A
S2140018A053601F4A0A9B936004AB1A464FF40071BC
S2140018B01E4804F04DFB9DF81030002B04D040F27B
S2140018C04921184806F0BCFC04AB00930023002214
S2140018D00021174804F066F99DF81030002B04D05C
S2140018E040F24D210F4806F0ABFC0B9B9AB2114B11
S2140018F05A8004AB1A464FF400710D4804F028FBDA
S2140019009DF81030002B04D040F25221054806F016
S21400191097FC00238DF827304BE700BF186E002099
S214001920046E0020C4ED0000B81200201013002042
S214001930A0130020FC6D002000B58BB003900F2391
S2140019408DF8253000238DF8273000238DF82630BB
S214001950FEF70EFE04AB1A4600214FF4FA7006F0AE
S2140019607FF99DF81030002B04D04FF41A71894887
S21400197006F066FC04AB0093002300220021864894
S21400198004F0D2FD08909DF81030002B04D040F2F1
S2140019906B21804806F054FC04AB1A464FF40071E5
S2140019A07D4804F059FF0890FEF7BAFD0320FEF7C5
S2140019B045FD0346DB008DF825300220FEF73EFD90
S2140019C003469B005AB29DF9253013435BB28DF84F
S2140019D025300120FEF732FD03465B005AB29DF922
S2140019E0253013435BB28DF825300020FEF726FD28
S2140019F003461A469DF8253013438DF825309DF88A
S214001A0025300F2B7AD801A252F823F04D1A000089
S214001A10C51A0000D31A00008D1A0000B71A00007D
S214001A20E11A00004D1A0000631A0000A91A00000F
S214001A304D1A0000EF1A00007F1A00009B1A0000E3
S214001A40711A0000551A00004D1A000000238DF888
S214001A50263059E004238DF8263001238DF82730F0
S214001A6052E0FC238DF8263001238DF827304BE01A
S214001A7002238DF8263001238DF8273044E0FE231C
S214001A808DF8263001238DF827303DE0FC238DF8B5
S214001A90263001238DF8273036E004238DF82630D3
S214001AA001238DF827302FE004238DF826300123FC
S214001AB08DF8273028E002238DF8263001238DF894
S214001AC0273021E0FC238DF8263001238DF82730BF
S214001AD01AE0FE238DF8263001238DF8273013E018
S214001AE0FE238DF8263001238DF827300CE00223E4
S214001AF08DF8263001238DF8273005E040F2AD2121
S214001B00244806F09DFB00BF9DF82730002B3FF4CD
S214001B1021AF04AB00930023002200211F4804F0ED
S214001B2041F89DF81030002B04D040F2B32119483C
S214001B3006F086FB1A4B1B785BB2DAB29DF82630AD
S214001B401344DBB25AB2164B1A70154B1B785BB2B5
S214001B505A2B02DD124B5A221A70114B1B785BB2BD
S214001B6013F15A0F02DA0E4BA6221A7004AB1A466D
S214001B704FF40071094804F0EBF99DF81030002B83
S214001B8004D040F2BE21034806F05AFB00238DF82D
S214001B902730DFE6C4ED0000B8120020E012002077
S214001BA0146E002000B58BB0039005AB00930023A5
S214001BB000220021064804F0B7FC09909DF8143076
S214001BC0002BF2D040F2CF21024806F039FBECE7BA
S214001BD068120020C4ED000000B58BB0039000230F
S214001BE0ADF826300023ADF8243004AB0093002374
S214001BF000220021304804F097FC08909DF8103031
S214001C00002B04D040F2EF212C4806F019FB04AB61
S214001C100093002300220021294803F0C3FF9DF80B
S214001C201030002B04D04FF43D71244806F008FB1A
S214001C30244B1B88ADF82630224B5B88ADF8243049
S214001C4004AB1A464FF400711D4804F081F99DF864
S214001C501030002B04D040F2FB21184806F0F0FAB2
S214001C6004210520FEF776FEBDF82630BDF82420B8
S214001C7002FB03F3184604AB1A46002105F0F0FFFA
S214001C809DF81030002B04D040F201310B4806F0CE
S214001C90D7FA04AB1A464FF400710B4804F0DCFD8B
S214001CA008909DF81030002B9FD040F20531034875
S214001CB006F0C6FA99E700BFC8110020C4ED000080
S214001CC0A0130020FC6D0020F011002000B58BB0A2
S214001CD003900023ADF826300023ADF8243004AB83
S214001CE00093002300220021314804F01DFC0890D8
S214001CF09DF81030002B04D04FF449712D4806F0A3
S214001D009FFA04AB00930023002200212A4803F028
S214001D1049FF9DF81030002B04D040F229312548A9
S214001D2006F08EFA254B1B88ADF82630234B5B88D1
S214001D30ADF8243004AB1A464FF400711E4804F088
S214001D4007F99DF81030002B04D04FF44C71194859
S214001D5006F076FA04210520FEF788FDBDF8263049
S214001D60BDF82420C2F1010202FB03F3184604ABBF
S214001D701A46002105F074FF9DF81030002B04D0A1
S214001D8040F235310B4806F05BFA04AB1A464FF4C6
S214001D9000710B4804F060FD08909DF81030002B91
S214001DA09DD040F23A31034806F04AFA97E700BF62
S214001DB0F0110020C4ED0000A0130020FC6D0020F0
S214001DC0C811002000B58BB003900023ADF8263074
S214001DD00023ADF8243004AB00930023002200213A
S214001DE0304804F0A1FB08909DF81030002B04D07A
S214001DF040F259312C4806F023FA04AB0093002336
S214001E0000220021294803F0CDFE9DF81030002B5B
S214001E1004D040F25E31244806F012FA244B1B88A8
S214001E20ADF82630224B5B88ADF8243004AB1A465A
S214001E304FF400711D4804F08BF89DF81030002B0D
S214001E4004D040F26531184806F0FAF9052105205D
S214001E50FEF780FDBDF82630BDF8242002FB03F314
S214001E60184604AB1A46002105F0FAFE9DF810301D
S214001E70002B04D040F26B310B4806F0E1F904ABBE
S214001E801A464FF400710B4804F0E6FC08909DF8E3
S214001E901030002B9FD040F26F31034806F0D0F987
S214001EA099E700BF18120020C4ED0000D0130020F0
S214001EB0006E00204012002000B58BB00390002377
S214001EC0ADF826300023ADF8243004AB0093002391
S214001ED000220021314804F027FB08909DF81030BE
S214001EE0002B04D040F28E312D4806F0A9F904AB41
S214001EF000930023002200212A4803F053FE9DF899
S214001F001030002B04D040F29331254806F098F9A3
S214001F10254B1B88ADF82630234B5B88ADF8243064
S214001F2004AB1A464FF400711E4804F011F89DF8F1
S214001F301030002B04D040F29A31194806F080F990
S214001F4005210520FEF792FCBDF82630BDF82420BA
S214001F50C2F1010202FB03F3184604AB1A46002145
S214001F6005F07EFE9DF81030002B04D040F29F3125
S214001F700B4806F065F904AB1A464FF400710B489F
S214001F8004F06AFC08909DF81030002B9DD04FF4AA
S214001F906971034806F054F997E700BF4012002025
S214001FA0C4ED0000D0130020006E002018120020A0
S214001FB000B583B00190FEF741FDFCE700B585B0A3
S214001FC06B461A467149724803F086FD9DF800304C
S214001FD0002B04D040F2FD316E4806F031F96B4616
S214001FE01A466D496D4803F077FD9DF80030002BCA
S214001FF004D04FF48061674806F022F96B461A4613
S2140020006749684803F068FD9DF80030002B04D04F
S21400201040F203415F4806F013F96B461A466249E0
S214002020624803F059FD9DF80030002B04D040F2C2
S2140020300641584806F004F96B461A465C495D4866
S21400204003F04AFD9DF80030002B04D040F2094111
S214002050504806F0F5F86B461A465749574803F0BD
S2140020603BFD9DF80030002B04D040F20C4149485F
S21400207006F0E6F86B4600225149524802F09CFFF3
S2140020809DF80030002B04D040F21741414806F07E
S214002090D7F86B4600224C494C4804F0DBF99DF813
S2140020A00030002B04D040F21C413A4806F0C8F835
S2140020B06B4600224649474804F0CCF99DF80030AC
S2140020C0002B04D040F21F41324806F0B9F86B46A8
S2140020D000224149414804F0BDF99DF80030002B2C
S2140020E004D040F222412B4806F0AAF86B460022A4
S2140020F03B493C4804F0AEF99DF80030002B04D074
S21400210040F22541234806F09BF86B4600223649EC
S214002110364804F09FF99DF80030002B04D04FF4A9
S21400212085611C4806F08CF86B4600223049314821
S21400213004F090F99DF80030002B04D040F22B41BB
S214002140144806F07DF86B4600222B492B4804F015
S21400215081F99DF80030002B04D040F22E410D4846
S21400216006F06EF86B4600222549264804F072F900
S2140021709DF80030002B04D040F23141054806F0AF
S2140021805FF800BF05B05DF804FB00BF58EE000026
S214002190E0120020C4ED000064EE000010130020E2
S2140021A070EE0000401300207CEE0000701300204C
S2140021B084EE0000A013002094EE0000D013002050
S2140021C0A4EE000078110020B0EE0000A011002060
S2140021D0C0EE0000C8110020D4EE0000F011002070
S2140021E0E8EE000018120020FCEE0000401200206E
S2140021F010EF00006812002020EF00009012002070
S21400220034EF0000B8120020214B01221A71204B37
S21400221009229A601E4B4FF4FA62DA601C4B0022C9
S2140022201A611B4B80225A61194B00229A61184B87
S21400223000221A62164B05221A63154B6FF0010234
S214002240DA62134B05225A62114B14229A62104B23
S21400225031225A630E4B41F288329A630C4B40226D
S214002260DA630B4B6422DA61094B4FF4FA621A60A8
S214002270084B4FF47A721A80064B00225A80064B9F
S2140022804FF47A721A80044B00225A8000BF7047BF
S214002290186E0020FC6D0020006E002000B587B090
S2140022A0019008F0EBFF03460F4AA2FB03239B09AD
S2140022B005930E4A059BB2FBF3F30493019B4FF480
S2140022C07A7203FB02F2049BB2FBF3F30393039BC5
S2140022D09B080293029B002B02D0029800F008F89D
S2140022E000BF07B05DF804FBD34D621040420F00FC
S2140022F0013800D0FCE7704730B583B007F0B4FA79
S21400230001901E4B1B7883F00103DBB2002B2ED00E
S2140023101B4B00221A601B4B00221A601A4B00222D
S2140023201A8000F0D1FC012000F074FD00F0F8FDEA
S2140023300346164A1360154B1B68002B04D1019800
S21400234007F0A2FA232316E0104B1B6800221C4657
S214002350154622462B460E4840F2E73109F0E4FFC8
S21400236002460B460B4B1A60044B01221A7001986A
S21400237007F08AFA0023184603B030BD806E0020AE
S214002380786E00207C6E0020706E0020746E002038
S21400239018FCFFFF846E002000B58BB007900691F6
S2140023A00592049300238DF82730079B002B01D15C
S2140023B022231AE00DF127031946079800F07AF851
S2140023C09DF82730002B01D003230EE0BDF83430F3
S2140023D002939DF830300193049B0093059B0022E6
S2140023E00699079800F0F2FA034618460BB05DF817
S2140023F004FB00B589B00790069105920493079BED
S214002400002B01D1222311E0079800F013F8BDF845
S2140024102C3002939DF828300193049B0093059B73
S214002420069A0699079800F0D1FA0346184609B0AE
S2140024305DF804FB00B587B0019000238DF81730D7
S214002440019B002B01D122232EE007F00DFA049009
S21400245000F084FA164B1B68019A9A4202D10123B7
S2140024608DF81730019800F025FA0390039B002B97
S21400247004D0049807F008FA039B15E09DF817307F
S214002480002B06D00A4B1B68002B02D000F04CFA3B
S21400249006E0074B1B68002B02D1022000F0DCFC94
S2140024A0049807F0F1F90023184607B05DF804FB1E
S2140024B0786E002000B585B001900091019B002B3E
S2140024C002D0009B002B01D1222322E0009B002299
S2140024D01A7007F0C9F90290104B1B6803930AE0C4
S2140024E0039A019B9A4203D1009B01221A7002E0D4
S2140024F0039B9B680393039B002B06D0009B1B78D3
S21400250083F00103DBB2002BEAD1029807F0BCF996
S2140025100023184605B05DF804FB00BF786E002067
S21400252010B584B001900091019B002B02D0009B57
S214002530002B01D1222343E007F096F9029000F029
S2140025400DFA019B5A69009B1A601F4B1B68039388
S21400255009E0009B1A68039B5B691A44009B1A609B
S214002560039B9B680393039A019B9A4202D0039BAA
S214002570002BEED1039A019B9A4204D0029807F0F2
S21400258083F903231CE0009B1C6800F0E7FB02466F
S2140025900E4B1B68D31A9C420BD900F0DFFB024699
S2140025A00A4B1B68D31A009A1268D21A009B1A604C
S2140025B002E0009B00221A60029807F065F90023EB
S2140025C0184604B010BD00BF786E00207C6E002058
S2140025D000B583B007F048F9019000F0BFFB00900B
S2140025E0019807F051F9009B184603B05DF804FB0C
S2140025F0014B1B6818467047746E00202DE9F04F9B
S2140026008DB003468DF807309DF8073003F00103C0
S214002610002B0ED0774B1B889BB201339AB2754BBA
S2140026201A8000F09BF9744B1B68002B01D000F059
S2140026307BF99DF8073003F00203002B00F0D680EC
S21400264000230A93002309930023ADF8223007F0F5
S2140026500BF90B9000F082F9A4E0674B1B68079318
S214002660654B1B680A93002306934FF000024FF059
S2140026700003CDE9042300238DF80F300AE00A9BFF
S2140026801A79079B1B799A4201D9079B0A93079BE5
S2140026909B680793079B002B03D0079B5B69002B67
S2140026A0EDD00B9807F0F0F80A9B1B69002B20D0A2
S2140026B00A9B1B6900229A469346CDE904AB00F0BC
S2140026C04DFB02460A9B9B69D31A0693069BDA17B4
S2140026D01C461546DDE90423A242AB4109DA012374
S2140026E08DF80F300A9B9A690A9B1B691A440A9B4D
S2140026F09A619DF80F3083F00103DBB2002B08D0FF
S21400270007F0B2F80B900A9800F0D4F80B9807F090
S214002710BBF80A9B1B69002B2DD09DF80F3083F069
S2140027200103DBB2002B26D0069BDA171E4617469F
S214002730DDE90423B2EB060863EB0709CDE904895B
S214002740DDE90423002B04DA40F202412B4805F0B1
S21400275077FD07F089F80B90049B19460A9800F05D
S21400276051F80A9B9A690A9B1B691A440A9B9A614C
S2140027700B9807F089F80A9BDB88ADF82230099B96
S214002780013309930A9BDB68002B06D00A9BDB68A3
S2140027900A9A126811460A98984707F065F80B904F
S2140027A000F0DCF8144B1B68002B05D0124B1B689E
S2140027B05B69002B3FF451AF114B00221A70099B46
S2140027C0012B06D1BDF82230022B02D10C4B012280
S2140027D01A70094B1B68002B02D000F0A5F802E027
S2140027E0022000F039FB0B9807F04EF800BF0DB042
S2140027F0BDE8F08F706E0020786E002048EF000075
S214002800886E002086B001900091009B0593019B86
S214002810059A5A61264B1B68002B40D00023049370
S214002820234B1B6803930CE0039B5B69059AD31A42
S2140028300593019B059A5A61039B0493039B9B682F
S2140028400393039B002B13D0039B5B69059A9A4264
S214002850EAD2039B5B69002BE6D0039B5B69059A73
S2140028609A4205D1019B1A79039B1B799A42DBD8C1
S214002870049B002B03D0049B019A9A6002E00C4A4A
S214002880019B1360019B039A9A60039B002B0CD05C
S214002890039B5A69059BD21A039B5A6105E0044ABA
S2140028A0019B1360019B00229A6000BF06B0704730
S2140028B0786E002084B0019000230393194B1B68A8
S2140028C0029304E0029B0393029B9B680293029B85
S2140028D0002B03D0029A019B9A42F3D1029A019BE5
S2140028E09A4201D0022319E0039B002B04D0019BDF
S2140028F09A68039B9A6003E0019B9B68094A1360F1
S214002900019B9B68002B08D0019B9B685969019B23
S2140029105A69019B9B680A445A610023184604B012
S214002920704700BF786E002000B583B0094B1B6867
S2140029305A69094B1B6813440193022000F06AFA97
S214002940019800F019FA00F095F800BF03B05DF8A2
S21400295004FB00BF786E00207C6E002000B585B0BA
S21400296000F0FCF90190174B1B680393164B1B688D
S214002970019AD31A029318E0039B5B69029A9A4263
S21400298008D8039B5A69029BD21A039B5A610023FC
S214002990029307E0039B5B69029AD31A0293039B98
S2140029A000225A61039B9B680393039B002B02D073
S2140029B0029B002BE0D1044A019B136000BF05B0C8
S2140029C05DF804FB786E00207C6E002000B587B0B2
S2140029D00390029101920093039B9DF824201A71A4
S2140029E0039B089A1A60039B00229A60039B019A35
S2140029F01A61039B009ADA60039BBDF82820DA80F0
S214002A0000F0ACF90246019B1A44039B9A61029BB4
S214002A10002B15D1039B00225A61039BDB68002B19
S214002A2006D0039BDB68039A126811460398984702
S214002A30019B002B02D0019B029301E0002313E0D0
S214002A4006F012FF0590FFF789FF02990398FFF73B
S214002A50D9FE074B1B68039A9A4201D1FFF764FF21
S214002A60059806F011FF0023184607B05DF804FB32
S214002A70786E002082B0134B1B68019300230093EE
S214002A80114B00221A7014E0019BDB8803F002034E
S214002A90002B03D00C4B01221A700FE0019B9B68A1
S214002AA00193019B002B08D0019B5B69009A13449D
S214002AB00093009B012BE7D900E000BF00BF02B0E7
S214002AC0704700BF786E0020816E002082B00346FB
S214002AD08DF807309DF90730002B0CDB9DF807308A
S214002AE003F01F0205499DF907305B09012000FA33
S214002AF002F241F8232000BF02B0704700E100E078
S214002B0082B003468DF807309DF90730002B0DDBA9
S214002B109DF8073003F01F0206499DF907305B0950
S214002B20012000FA02F2603341F8232000BF02B011
S214002B30704700BF00E100E000B583B00190019B44
S214002B40022B04D940F29311064805F079FB064A99
S214002B50019B04331B01134404331B68184603B05F
S214002B605DF804FBC0EF00000020044000B583B011
S214002B7001900091019B022B04D940F2A71107484F
S214002B8005F05EFB064A019B04331B011344043325
S214002B90009A1A6000BF03B05DF804FBC0EF0000A7
S214002BA00020044000B583B001900198FFF7C4FFF1
S214002BB00346184603B05DF804FB00B583B00190E9
S214002BC0009100990198FFF7D1FF00BF03B05DF8B0
S214002BD004FB0000014B9B68184670470020044029
S214002BE082B00190024A019B936000BF02B070471A
S214002BF00020044082B00190024A019B136200BF8D
S214002C0002B070470020044082B00190044B5A6A1C
S214002C10019BDB43024913404B6200BF02B0704782
S214002C200020044082B00190044B5A6A0349019B7D
S214002C3013434B6200BF02B0704700BF0020044041
S214002C40014B9B69184670470020044000B583B0CE
S214002C500190019B1F2B04D940F22F11054805F067
S214002C60EFFA0122019B02FA03F3184603B05DF85F
S214002C7004FB00BF24F0000000B585B00190019B66
S214002C80B3F5004F04D340F622510E4805F0D8FAAB
S214002C90019B0133B3FA83F3DBB2C3F11F03039343
S214002CA00398FFF7D3FF0346013B019A9A4204D0EC
S214002CB040F62851034805F0C3FA039B184605B0B2
S214002CC05DF804FB8CF0000000B587B0204A03AB2B
S214002CD007CA03C31A701F4A01AB92E803001860C4
S214002CE00433198002330A0C1A7001211A4805F0C1
S214002CF069FD00238DF80C300020FFF7BDFF03466A
S214002D00DBB28DF8103003AB184608F0FFF800234E
S214002D108DF8043001AB1946012008F0A9F840F2FE
S214002D20FF70FFF771FF40F2FF70FFF763FF0020B0
S214002D30FFF756FF012008F0D7F81E20FFF7E0FE49
S214002D401E20FFF7C3FE00BF07B05DF804FB00BF00
S214002D50F0F00000FCF00000A009140008B5FFF732
S214002D6039FF0346184608BD08B50120FFF71AFFCD
S214002D700346184608BD000000B587B00190FFF76F
S214002D80EDFF0490FFF7F0FF0390019B0593FFF71C
S214002D9057FF034603F00403002B0AD10499039857
S214002DA000F0CEF80346032B03D8039A049B9A42FE
S214002DB01BD10499059800F0C3F80346022B02D8ED
S214002DC0049B03330593059BB3F1FF3F2CBF012201
S214002DD0002252429B1A0593059B013B194601208F
S214002DE0FFF7EBFE022000F015F8084B1B78002BCF
S214002DF008D0074B1B6D064A43F002031365034BCE
S214002E0000221A7000BF07B05DF804FB0010002017
S214002E100020044000B585B003468DF80730002337
S214002E2003939DF8073003F00103002B03D0039BA8
S214002E3043F0010303939DF8073003F00203002BD1
S214002E4003D0039B43F0040303930398FFF7EAFEC3
S214002E5000BF05B05DF804FB00B585B003468DF8ED
S214002E600730002303939DF8073003F00103002B7F
S214002E7003D0039B43F0010303939DF8073003F050
S214002E800203002B0CD0039B43F004030393084B70
S214002E9001221A70074B1B6D064A23F003031365C5
S214002EA00398FFF7B1FE00BF05B05DF804FB00BF56
S214002EB0001000200020044000B585B000238DF8E7
S214002EC00F3006F0D1FC0290FFF7BAFE0190019B8E
S214002ED003F00103002B05D09DF80F3043F00103EB
S214002EE08DF80F30019B03F00403002B05D09DF8EE
S214002EF00F3043F002038DF80F30019B03F00703F9
S214002F001846FFF777FE9DF80F301846FFF776FB5A
S214002F10029806F0B9FC00BF05B05DF804FB00009F
S214002F2010B5064805F0BCFC04460020FFF7A4FEDA
S214002F30034624FA03F3184610BD00BFA009140088
S214002F4082B001900091019A009BD31A184602B0F5
S214002F50704784B00390029101920093039B1B0C70
S214002F60DAB2029B1A70039B1B0ADAB2019B1A7034
S214002F70039BDAB2009B1A7000BF04B070470000D3
S214002F8000B589B00190019B002B01D105232FE0ED
S214002F90019B00225A60019B6FF07F429A6006AB4D
S214002FA0184600F071F90790079B002B01D0079B8D
S214002FB01EE0069A019B1A600023029300230393E7
S214002FC0069B1B88013B0493069B5B88013B05938D
S214002FD002AB1946019800F011F80790079B002BEA
S214002FE001D0079B04E00449019800F0DEF8079B37
S214002FF0184609B05DF804FB54F7000010B586B01B
S21400300001900091019B002B02D0009B002B01D168
S21400301005233EE0009B1A68009B9B689A4205DAEF
S214003020009B5A68009BDB689A4201DB042330E071
S214003030009B1B68002B13DB009B5B68002B0FDBE1
S214003040019B1B681B881A46009B9B689A4207DDFB
S214003050019B1B685B881A46009BDB689A4201DC72
S214003060032316E0009B1B680293009B5B68039398
S214003070009B9B680493009BDB680593019B03F110
S2140030800C0402AB0FCB84E80F00019800F054F854
S2140030900346184606B010BD10B588B00390039BD3
S2140030A0002B01D105232DE0039B58680DF1110379
S2140030B00DF112020DF1130100F067F8039800F00D
S2140030C024F80790079B002B01D0079B1AE0039B70
S2140030D01B681B890693039B1B685B8905939DF8F9
S2140030E013009DF812409DF81130069A059901FBD1
S2140030F002F201920093234602460021002000F0CF
S21400310027F90346184608B010BD00B583B00190F5
S214003110019B002B01D105230AE0019B1B681A883E
S214003120019B1B685B880021002000F0C1F8034665
S214003130184603B05DF804FB10B582B00190019B01
S214003140002B01D105231DE0019BDB6898B2019B93
S2140031501B6999B2019B5B699AB2019BDB689BB2C3
S214003160D31A9BB201339CB2019B9B699AB2019B16
S2140031701B699BB2D31A9BB201339BB2224600F066
S21400318097F80346184602B010BD00B585B0039008
S214003190029101920093009B019A02990398FFF70F
S2140031A0D8FE00BF05B05DF804FB00B583B0019003
S2140031B00091019B002B01D1052313E0009B002BFF
S2140031C008D1019B1C3310220021184609F078FA1A
S2140031D0052307E0019B1C3310220099184609F0CE
S2140031E061FA0023184603B05DF804FB00B587B00B
S2140031F00390234B1B68002B01D000233BE008F014
S214003200D9FB0590059B002B01D0012333E008F085
S214003210B7FB03461A4A1360194B1B68002B01D1F3
S214003220012328E0164B1B681A88164B1A80144B8D
S2140032301B685A88134B5A80124B00229A80114BF7
S2140032400022DA800F4B1A880E4B1A810D4B5A88D3
S2140032500C4B5A810B4B1B881A460A4B5B8802FBA9
S21400326003F3019300230093002300220021002093
S21400327000F06EF80023184607B05DF804FB00BFA8
S2140032808C6E0020906E002082B00190064B1B686A
S214003290002B01D1012303E0019B044A1A6000239E
S2140032A0184602B0704700BF8C6E0020906E00205B
S2140032B010B483B00446084611461A462346ADF8B5
S2140032C006300346ADF804300B46ADF80230134620
S2140032D0ADF800301C4B1B68002B01D101232EE0FB
S2140032E0BDF80620BDF802301344184A12889342EF
S2140032F008DCBDF80420BDF800301344134A528899
S214003300934201DD04231AE0BDF80230002B03D0FF
S214003310BDF80030002B01D1052310E00B4ABDF8A4
S21400332006309380094ABDF80430D380074ABDF8BA
S21400333002301381054ABDF8003053810023184639
S21400334003B05DF8044B70478C6E0020906E002032
S21400335010B58AB00446084611461A462346ADF80C
S21400336006300346ADF804300B468DF8033013469E
S2140033708DF80230954B1B68002B01D1012321E10B
S21400338010230693924BDA88914B5B891344ADF871
S21400339016308F4BDA88BDF804301344ADF81E3073
S2140033A00BE1BDF81E20BDF816309A4201D3042367
S2140033B008E1874B1B891A46BDF80630D31A1A4611
S2140033C00D9B934228BF134609930D9A099BD31A67
S2140033D00D937F4B9A88BDF806301344ADF806303F
S2140033E0BDF81E30069A02FB03F31A46794B1344C7
S2140033F008939DF80230002B01D0FF2300E0002345
S2140034008DF81530099B072B59D8BDF80630099A58
S214003410134409939DF81530002B4AD020E0BDF8E0
S2140034200630DB089BB21A46089B13441B785AB238
S214003430BDF8063003F00703012101FA03F35BB27F
S21400344013435AB2BDF80630DB089BB21946089BF8
S2140034500B44D2B21A70BDF806300133ADF8063010
S214003460BDF80630099A9A42D9D899E0BDF80630D8
S214003470DB089BB21A46089B13441B785AB2BDF869
S214003480063003F00703012101FA03F35BB2DB43C6
S2140034905BB213405AB2BDF80630DB089BB2194641
S2140034A0089B0B44D2B21A70BDF806300133ADF853
S2140034B00630BDF80630099A9A42D7D870E0BDF8B3
S2140034C0063003F007030493BDF80630DB089BB212
S2140034D01A46089B13440893049B002B26D001220F
S2140034E0049B02FA03F3DBB2013B8DF80F30089B16
S2140034F01A789DF80F301340DBB25AB29DF90F30A0
S214003500DB4359B29DF915300B405BB213435BB2F7
S2140035108DF80E30089B9DF80E201A70089B01331C
S2140035200893049A099B1344083B0993099BDB08FC
S2140035300293029B002B10D09DF81530029A194674
S214003540089809F0BDF8029BDB001A46099B9B1AF7
S2140035500993029B089A13440893099B002B1FD0DB
S2140035600122099B02FA03F3DBB2013B8DF80F3010
S214003570089B1B785AB29DF90F30DB435BB21340B1
S2140035805AB29DF815109DF80F300B40DBB25BB2B7
S21400359013435BB28DF80E30089B9DF80E201A7010
S2140035A0BDF81E30184600F091F80023ADF806303E
S2140035B0BDF81E300133ADF81E300D9B002B7FF496
S2140035C0F0AE002318460AB010BD00BF8C6E002077
S2140035D0906E0020AC6E002000B589B010230393D7
S2140035E0374B1B680593012304930023079300239E
S2140035F006933CE0059B03F00103002B03D0069BDB
S2140036000133069321E0069B002B1BD0039B079AF1
S21400361002FB03F32B4A134402932B4B1868069BBA
S214003620079A029908F034F90190019B002B01D00B
S214003630072341E0069A079B1344013307930023B0
S214003640069302E0079B01330793079A069B1344F1
S21400365003F01F03002B03D0059B5B08059306E0D1
S214003660049B5A1C0492164A52F823300593079A74
S214003670069B1344144A126852889342BAD3069B98
S214003680002B13D0039B079A02FB03F30D4A134447
S21400369002930D4B1868069B079A029908F0F8F8F3
S2140036A00190019B002B01D0072305E0102200218A
S2140036B0034809F005F80023184609B05DF804FB36
S2140036C09C6E0020AC6E00208C6E002082B00190B4
S2140036D0019B5B11094A52F82320019B03F01F034C
S2140036E0012101FA03F31946019B5B110A430349C2
S2140036F041F8232000BF02B0704700BF9C6E002038
S214003700B0FA80F0704790FAA0F0B0FA80F07047F8
S21400371090FAA0F0704700BF72B64EF62250CEF276
S214003720000040F2FF01C0F200010170002080F3AB
S214003730098847F2AC60C2F20000016881F308888D
S21400374000F06EF947F60E00C2F2000047F60F01D1
S214003750C2F200010A78027047F63440C2F2000056
S21400376047F63841C2F200010A680260106880F32A
S2140037700988EFF3148040F0020020F0040080F384
S2140037801488BFF36F8FBDE8F04F0FBCBDE8005044
S21400379006BC62B6084737484FF080510160704754
S2140037A034484FF0805101607047602080F31188E4
S2140037B047F63442C2F200021168002901BF2E4AC1
S2140037C0136823F0010313600ED0EFF309801EF098
S2140037D0100F08BF20ED108A20E9F04F47F6344559
S2140037E0C2F2000529680860744600F019F947F629
S2140037F03441C2F2000147F63840C2F200000368C6
S2140038000B6047F60E02C2F2000247F60F01C2F244
S21400381000010878107044F0040E002B0AD01868D7
S214003820B0E8F04F1EF0100F08BFB0EC108A80F31F
S21400383009881BE047F2AC61C2F200010868A0F1FB
S2140038401C0080F3088840F20001C0F20011C1613C
S21400385043F67D01C0F20001816147F61D21C0F2EA
S214003860000141614FF6F97ECFF6FF7E002080F31F
S2140038701188704704ED00E034EF00E000BFFDE77C
S21400388082B00F4B1A680F4B1B6803F18043013B55
S2140038909B0013440C4A13600B4B1B6823F0070372
S2140038A01A46094B1A60094B1B680193019B03F0EB
S2140038B04043B3F1404F00D0FEE700BF02B0704770
S2140038C0BC760020C0760020AC76002034EF00E006
S2140038D000B585B0019005F0C7FF039004F097FB94
S2140038E0039805F0D1FF00BF05B05DF804FB00BFEC
S2140038F0704782B0019000BF02B0704782B001905E
S21400390000BF02B0704782B0019000BF02B070479F
S21400391086B00390029101920093069B9B00019A49
S21400392013440593059B23F007030593059B043B6F
S2140039300593059B4FF080721A60059B043B059328
S214003940039A059B1A60059B043B0593334A059B27
S2140039501A60059B043B0593059B4FF012321A60D4
S214003960059B043B0593059B4FF003321A60059BAD
S214003970043B0593059B4FF002321A60059B043BFF
S2140039800593009A059B1A60059B043B0593029AD3
S214003990059B1A60059B043B0593059B6FF002028E
S2140039A01A60059B043B0593059B4FF011321A6085
S2140039B0059B043B0593059B4FF010321A60059B50
S2140039C0043B0593059B4FF009321A60059B043BA8
S2140039D00593059B4FF008321A60059B043B059340
S2140039E0059B4FF007321A60059B043B0593059B29
S2140039F04FF006321A60059B043B0593059B4FF07B
S214003A0005321A60059B043B0593059B4FF0043274
S214003A101A60059B184606B0704700BF1D7A000066
S214003A2000B583B0164B1B68002B12D0154B1B78C5
S214003A30002B0ED0124B1B685B6F002B04D1104B73
S214003A401B68184600F0CCFF0D4B1B68184600F0AC
S214003A509FFF0D4B1B68002B0ED0002003F054FE7A
S214003A6003468DF807309DF80730012B04D0064B2F
S214003A701B681846FFF72CFF00BF03B05DF804FB79
S214003A80387C0020207B0020347C002000B583B0EA
S214003A9007F0F4FB01900B4B1B680A4A43F0807357
S214003AA01360094B00221A60084B1B68074A43F054
S214003AB001031360019804F0ABFA00BF03B05DF891
S214003AC004FB00BFFCED00E0041000E0001000E086
S214003AD082B0034B1B680193019B184602B07047E7
S214003AE0041000E000BF7047F0B587B00190019B5E
S214003AF0002B01D104F08BFA7B4B5B68002B2CD09B
S214003B00794B1B68002B10D1774B196B764B5B6893
S214003B109A00019B754804F08FFA0346744A1360B6
S214003B20019B1B78002B04D0B5E16F4B1B68704AD5
S214003B3013606F4B1B686F4A13606B4B5B686E4A73
S214003B401360694B5B689B006C4A13606C4B1A6889
S214003B506A4B1B6813446A4A1360634B1B89002B2D
S214003B6024D0614B196B604B1B891A01019B654879
S214003B7004F062FA0346644A1360019B1B78002B2C
S214003B8040F08081604B1B68604A1360564B1A8970
S214003B905F4B1A80544B1B891B015E4A1360584BBF
S214003BA01A685C4B1B681344554A13604E4B5B699E
S214003BB0002B40D04C4B1B69002B10D14A4B196B85
S214003BC0494B5B699A00019B534804F035FA03465B
S214003BD0524A1360019B1B78002B04D05BE1424BDA
S214003BE01B694E4A1360404B1A7E4D4B1A703E4B73
S214003BF0DB694C4A1360494B1B684B4A13603A4BCF
S214003C005B69394AD26802FB03F3484AA2FB0323E6
S214003C105B09474A1360344B5B69464A1360324B74
S214003C205B699B00444A1360354B1A68424B1B681D
S214003C301344334A13602C4B5B6B404A1360FFF708
S214003C401FFEFEF759FB0390039B002B0DD0019B34
S214003C5001221A70019B3A4A5A60019B4FF4D772B0
S214003C609A60019B374ADA6015E1FEF7C1FC02460E
S214003C70324B1B689A420DD2019B09221A70019B97
S214003C802F4A5A60019B4FF4D9729A60019B2D4AC5
S214003C90DA60FEE7FEF7ACFC0246284B1B689A4249
S214003CA003D1294B00221A6015E0FEF7A1FC03465B
S214003CB000221E46174632463B464FF000004FF0A5
S214003CC0010108F031FB02460B461C4B1B6802FB49
S214003CD003F31D4A1360194B1B68B3F57A7F37D878
S214003CE01A4B00221A6048E00410002068F7000013
S214003CF0B0760020BC760020C0760020C476002077
S214003D00F07600207CF70000B4760020C87600200D
S214003D10CC760020D076002090F70000B876002001
S214003D20D4760020D8760020DC7600201F85EB5164
S214003D30E0760020E4760020E8760020EC7600208E
S214003D40ACF7000038F80000187700201477002041
S214003D50524B1B6800221C46154622462B464FF047
S214003D6000004FF0010108F0DFFA02460B464FF460
S214003D707A7302FB03F34A4A13604A4B00221A7016
S214003D80494B00221A70494B00221A60484B002209
S214003D901A60484B00221A70474B00221A70474B95
S214003DA000221A70019803F041FF0346444AA2FB22
S214003DB00323DB08434A1360019B1B78002B63D167
S214003DC0414B1B68002B1DD0404B1B680593059B81
S214003DD0002B17D03C4B1B68049308E0049B013B68
S214003DE00493059B00221A60059B04330593049BED
S214003DF0002BF3D1354B1B68334A12681146184620
S214003E0003F03AFE324B00221A7002F0A5FA00F0D8
S214003E103DFC304B00221A602F4B00221A802F4B9D
S214003E201B88002B06D0019801F0A6FD019B1B788D
S214003E30002B2BD12A4B00221A602A4B00221A8014
S214003E40294B00221A60294B00221A80284B002298
S214003E501A60284B00221A80019803F0E3FC019BAD
S214003E601B78002B14D1019802F0F8FF019B1B78F9
S214003E70002B0FD100F046FFFFF734FE1E4B012249
S214003E801A7008E000BF06E000BF04E000BF02E0D2
S214003E9000BF00E000BF07B0F0BD00BFEC7600201A
S214003EA014770020F0770020187B0020347C002058
S214003EB0387C00200E7800200F780020207B002021
S214003EC0CDCCCCCC1C7B0020C0760020BC7600205D
S214003ED0327C0020F4770020F8770020CC76002093
S214003EE0087800200C780020107800201478002035
S214003EF0247B0020287B0020F177002010B586B0B8
S214003F007F4B1B78012B00D0FEE77E4B1B78002BE7
S214003F1040F0F28005F0A8FC05907B4B1B788DF8EE
S214003F20133002F02FFA03461A46774B1A70764B78
S214003F301B78402B7FD0744B1B781946734A0B4670
S214003F405B000B449B0013441B68714A13609DF88A
S214003F501330402B03D102F0CFFFAFF300806C4B41
S214003F601A686C4B1B689A4225D1002003F0CCFBE4
S214003F7003468DF80B309DF80B30012B04D0654BB3
S214003F801B681846FFF7A4FC634B1B78002B0ED06B
S214003F905F4B1B685B6F002B04D15D4B1B6818469C
S214003FA000F01EFD5A4B1B68184600F0F1FC059801
S214003FB005F06AFCA1E0584B1B78002B33D0574B1A
S214003FC01B685B6F002B2ED001AB19465448FEF7DA
S214003FD0A7FA0390039B002B06D1504B1B68019A4F
S214003FE05A674F48FEF726FA4C4B1B685B6F002B50
S214003FF019D14A4B1B6893F833301A4613465B00B8
S21400400013449B00414A1344184600F0F7FB3E4B0E
S2140040101B7819463D4A0B465B000B449B00134435
S2140040201B683B4A13603A4B1B68D3F8C02001322A
S214004030C3F8C02002E0364B00221A60394B1B68DA
S2140040400133384A1360304B1B78402B3DD0314B40
S2140040501A682F4B1B689A422FD02E4B1B68002BDA
S2140040602BD0FFF735FD02462A4B1B68D3F8C83025
S2140040709A4208D3FFF72CFD0246264B1B68D3F85E
S214004080C830D31A08E0FFF723FD0246214B1B6811
S214004090D3F8C830D31A013B1E4A1268C2F8C4309F
S2140040A01C4B1B68D3F8CC101A4B1B68D3F8C420E3
S2140040B0184B1B680A44C3F8CC20154B1C68FFF746
S2140040C007FD0346C4F8C8300EE002F00BFF114BA4
S2140040D01B68002B06D00F4B1C68FFF7F9FC034645
S2140040E0C4F8C830AFF30080FFF755FB059805F01D
S2140040F0CBFBBFF36F8F00E000BF06B010BD00BF64
S214004100F0770020187B00200F7800201878002019
S214004110387C0020347C0020207B00201077002094
S214004120F4760020287C002000B585B00190019B25
S214004130002B01D103F06BFF3C4B1B78012B0DD0FD
S214004140019B13221A70019B394A5A60019B40F268
S214004150F6329A60019B374ADA60FEE70023ADF834
S2140041600E30BDF80E300133ADF80E30324B1B88E2
S214004170BDF80E209A420DD3019B09221A70019BAE
S2140041802B4A5A60019B40F201429A60019B294AE1
S214004190DA60FEE7294B1B78002B0DD0019B1F220F
S2140041A01A70019B224A5A60019B40F204429A60B0
S2140041B0019B204ADA60FEE705F080FB0346002BF1
S2140041C00DD0019B1F221A70019B194A5A60019B51
S2140041D040F207429A60019B164ADA60FEE702F058
S2140041E0D1F803461A46164B1A70154B1A78154B1B
S2140041F01A70134B1B781946134A0B465B000B4488
S2140042009B0013441B68114A1360104B1B68104A2E
S21400421013600A4B01221A7002F05AFEFFF77CFA6E
S21400422003F0F5FE00BF05B05DF804FBF177002053
S214004230ACF7000040F80000307C0020F07700204B
S2140042400F7800200E78002018780020387C002098
S214004250347C002000B587B003900B4601928DF8A1
S2140042600B301D4B1B689DF80B2083F830201A4B33
S2140042701B68002283F83120184B1B78002B06D0D1
S214004280174B1B6800225A671648FEF7D3F8124BE6
S2140042901B680199184600F02FFC039B002B0DD0DD
S2140042A0039B083305930C4B1B68039ADA620A4B90
S2140042B01B681946059800F097F803E0064B1B6844
S2140042C00022DA62044B1B681946039800F00CF8CB
S2140042D000BF07B05DF804FB347C0020207B002084
S2140042E010770020F476002084B001900091019BA6
S2140042F0002B0FD0019B5A68009BC3F8EC20019B53
S21400430008330393039B1B680293029BDA68019BA6
S214004310DA6116E0009B93F83030022B02D0072BB0
S21400432005D009E0009B084AC3F8EC2009E0009B92
S214004330064AC3F8EC2004E0009B054AC3F8EC20CC
S21400434000BF00BF04B0704720F8000028F8000047
S21400435034F8000084B001900091009B0C4AC3F82A
S214004360EC20019B002B10D0019B08330393039B8A
S2140043701B680293029B002B04D0029BDA68019B09
S214004380DA6102E0019B024ADA6100BF04B07047BE
S21400439034F8000000B585B00190019BDB6A0393FA
S2140043A0039B08330293029B1B685B6A002B09D0B1
S2140043B0019800F082F8019B039ADA62019902984C
S2140043C000F012F800BF05B05DF804FB82B0019063
S2140043D0019B00221A60019B00225A60019B00226A
S2140043E01A8100BF02B0704784B001900091009B14
S2140043F093F833308DF80B30019B1B68002B0FD1E0
S214004400019B01221A81009B00225A62009B002217
S2140044109A62019B009A1A60019B009A5A6049E0D2
S214004420019B1B8901339AB2019B1A81019B1B6871
S214004430039309E0039B93F833309DF80B209A42D0
S21400444006D3039B5B6A0393039B002BF2D100E029
S21400445000BF039B002B0ED1009B00225A62019BDB
S2140044605A68009B9A62009B9B6A009A5A62019B5C
S214004470009A5A601EE0039B9B6A002B0CD1009B9F
S214004480039A5A62009B00229A62039B009A9A62E1
S214004490019B009A1A600DE0009B039A5A62039BE8
S2140044A09A6A009B9A62009B9B6A009A5A62039BD8
S2140044B0009A9A6200BF04B0704786B00190019BD4
S2140044C0DB6A002B46D0019BDB6A08330593059B0D
S2140044D01B685B6A002B06D1059B00221A60059BB1
S2140044E000225A6027E0019B9B6A002B09D1019BA2
S2140044F05B6A0393039B00229A62059B039A1A60E9
S21400450019E0019B5B6A002B09D1019B9B6A04930F
S214004510049B00225A62059B049A5A600BE0019B9A
S2140045209B6A0493019B5B6A0393049B039A5A62FB
S214004530039B049A9A62059B1B89013B9AB2059BD2
S2140045401A81019B00225A62019B00229A62019BFB
S2140045500022DA6200BF06B07047000000B587B0E0
S214004560039002910192ADF80230029B93F832302C
S214004570072B17DC002B7FDB072B7DD801A252F818
S21400458023F000BF7F4600007F460000AB450000DA
S214004590AB4500007F4600007F4600001546000041
S2140045A015460000FF2B6CD066E0029B019A9A67C6
S2140045B0029BBDF80220A3F87C20029B089A5A644E
S2140045C0039B002B02D00298FFF777FF029903980F
S2140045D0FFF7C0FE029B93F83230032B0AD1029BF2
S2140045E054331846FDF726FF0590059B002B01D097
S2140045F003F00DFD029800F06BF8029B002283F892
S2140046003220029B002283F83120029B002283F88E
S214004610302037E0029B019A9A67029BBDF8022081
S214004620A3F87C20029B089A5A64039B002B02D0B6
S2140046300298FFF742FF02990398FFF78BFE029B52
S21400464093F83230072B0AD1029B54331846FDF7F5
S214004650F1FE0590059B002B01D003F0D8FC029BD1
S214004660042283F83220029B002283F83120029B2A
S214004670002283F8302005E003F0C9FC02E000BF0A
S21400468000E000BF00BF07B05DF804FB82B0002367
S214004690019313E0019A13465B0013449B000B4AF8
S2140046A013440093009B00221A81009B00221A608C
S2140046B0009B00225A60019B01330193019B3F2B14
S2140046C0E8D900BF00BF02B0704700BF18780020CE
S2140046D000B583B00190019B93F83330184601F083
S2140046E06BFE019B93F83320074B1B789A4203D14D
S2140046F0019800F047F802E0019800F007F800BFC4
S21400470003B05DF804FB00BF0E78002084B0019073
S214004710019B93F833301A4613465B0013449B0004
S214004720174A13440393039B1B68002B0FD1039B6C
S21400473001221A81019B00221A61019B00225A6104
S214004740039B019A1A60039B019A5A6015E0039B2B
S2140047501B8901339AB2039B1A81039B1A68019B3B
S2140047601A61019B00225A61039B1B680293029BFD
S214004770019A5A61039B019A1A6000BF04B0704701
S2140047801878002084B00190019B93F833301A46C5
S21400479013465B0013449B00174A13440393039B82
S2140047A01B68002B0FD1039B01221A81019B00225C
S2140047B01A61019B00225A61039B019A1A60039BAF
S2140047C0019A5A6014E0039B1B8901339AB2039B3B
S2140047D01A81019B00221A61039B5B680293019B6E
S2140047E0029A5A61029B019A1A61039B019A5A60C7
S2140047F000BF04B0704700BF1878002086B0019054
S214004800019B1A68019B5B689A423AD0019B1B6821
S2140048101A69019B5B689A4218D1019B1B68059335
S214004820019B5B680493059B049A5A61059B0022D2
S2140048301A61049B00225A61049B059A1A61019B27
S214004840049A1A60019B059A5A601AE0019B1B683D
S2140048500593019B5B680493059B1B690393039B6D
S21400486000225A61059B00221A61059B049A5A6130
S214004870049B059A1A61019B039A1A60019B059A8C
S2140048805A6000BF06B0704700B587B00190019B24
S21400489093F833301A4613465B0013449B00244AB1
S2140048A013440593019B5B690493019B1B69039367
S2140048B0049B002B1FD1039B002B0FD1059B0022CE
S2140048C01A81059B00221A60059B00225A60019BF4
S2140048D093F83330184601F095FD1FE0059B1B89C1
S2140048E0013B9AB2059B1A81039B00225A61059BE5
S2140048F0039A1A6012E0059B1B89013B9AB2059B3E
S2140049001A81049B039A1A61039B002B03D1059B13
S214004910049A5A6002E0039B049A5A61019B0022A3
S2140049205A61019B00221A6100BF07B05DF804FBC4
S2140049301878002000B585B001900091009B039385
S214004940104B1B78012B19D104F08EFF0290039BAD
S21400495000225A670C4B1B6893F833301A461346EE
S2140049605B0013449B00094A13441846FFF746FFB2
S214004970029804F089FFFFF7C1FA00E000BF05B017
S2140049805DF804FB207B00201077002018780020BC
S21400499000B585B00390039B002B12D00C4B1B7800
S2140049A0012B10D1039B596F002301930023009322
S2140049B0039B084A0848FDF7EFFC084A039B136070
S2140049C002E000BF00E000BF05B05DF804FB00BFDA
S2140049D0207B002035490000F47600201077002068
S2140049E02DE9F04F93B01190119B002B77D03F4BE1
S2140049F01B78012B75D1119B1B6F002B3CD13C4BB8
S214004A001B68002200930192FDF7F2FD0346002288
S214004A1002930392DDE900452B46DDE90289424612
S214004A2002FB03F24B46214601FB03F313442246E6
S214004A304146A2FB01673B441F462E4B1B68013BC9
S214004A40002204930592DDE904120B46F318069340
S214004A50134647EB03030793264B1B680022089375
S214004A600992DDE90823DDE9060107F05DFC024650
S214004A700B46119B5A6735E0119B1B6F00229A4626
S214004A809346FDF7B5FD034600229846914608FB7F
S214004A900BF20AFB09F31344AAFB08452B441D46F8
S214004AA0144B1B68013B00220A930B92DDE90A12A5
S214004AB00B46E3180C93134645EB03030D930D4B7F
S214004AC01B6800220E930F92DDE90E23DDE90C0130
S214004AD007F02AFC02460B46119B5A6702E000BF0D
S214004AE000E000BF13B0BDE8F08F00BF207B0020C1
S214004AF01C7B0020EC7600202DE9F04F8DB009904D
S214004B000891089B002B4AD0089B00229A469346A1
S214004B10FDF76EFD034600229846914608FB0BF211
S214004B200AFB09F31344AAFB08452B441D46214BF8
S214004B301B68002202930392DDE902120B46E61878
S214004B40134645EB03031F46731E049347F1FF33DA
S214004B500593184B1B68002206930792DDE906238F
S214004B60DDE9040107F0E0FB02460B4613460B9313
S214004B70099B03F154000023019300230093099B33
S214004B800D4A0B99FDF708FC0A900A9B002B01D0F2
S214004B9003F03DFA099B032283F8322003E0099BC9
S214004BA0022283F832200998FFF76EFE00BF0DB090
S214004BB0BDE8F08FEC760020BD4B000000B587B056
S214004BC001900091009B049304F04EFE0390049B1A
S214004BD093F83230013B062B00F2888001A252F88F
S214004BE023F000BFD34C0000ED4C0000014C000049
S214004BF0ED4C0000E34C0000ED4C0000014C0000C2
S214004C0000230593049B93F83030042B03D1049BB8
S214004C10DB6A5B6A0593049B00229A67049B00226A
S214004C20A3F87C20FEF754FF0246049B5A640498BF
S214004C30FFF743FC049B93F83230032B07D104980C
S214004C40FFF746FD049B002283F8322008E0049B11
S214004C5093F83230072B03D1049B042283F83220CA
S214004C60049B032283F83120049B002283F8302023
S214004C70059B002B3CD0059B93F83320059B93F8AF
S214004C8034309A4234D0059B93F83320049B93F833
S214004C9033309A422CD1059801F0EFFA03468DF88E
S214004CA00B30059B93F834309DF80B20934228BFB9
S214004CB013468DF80B30059B93F833309DF80B2088
S214004CC09A4215D09DF80B301946059802F0ECFE76
S214004CD00EE0049B002283F832200498FFF7F8FCCD
S214004CE007E0049B042283F8322002E000BF00E0C5
S214004CF000BF039804F0C8FDFFF700F900BF07B037
S214004D005DF804FB82B07F4B1B78DBB28DF8073072
S214004D107D4B1B68DBB28DF805307C4B1B78DBB215
S214004D208DF807307A4B1B78DBB28DF80730794B5D
S214004D301B68DBB28DF80530774B1B6ADBB28DF84B
S214004D400530764B1B78DBB28DF80730744B1B783A
S214004D50DBB28DF80730734B1B889BB2DBB28DF845
S214004D600630714B1B889BB2DBB28DF806306F4B5A
S214004D701B78DBB28DF807306D4B1B889BB2DBB21D
S214004D808DF806306B4B1B889BB2DBB28DF8063075
S214004D90694B1B889BB2DBB28DF80630674B93F8E5
S214004DA02830DBB28DF80530654B1B78DBB28DF80A
S214004DB00730644B1B889BB2DBB28DF80630624B23
S214004DC01B889BB2DBB28DF80630604B1B889BB20B
S214004DD0DBB28DF806305E4B1B889BB2DBB28DF8DB
S214004DE006305C4B1B889BB2DBB28DF806305A4B04
S214004DF01B889BB2DBB28DF80630584B5B8D9BB29E
S214004E00DBB28DF80530564B1B78DBB28DF80730D9
S214004E10544B1B889BB2DBB28DF80630524B1B7886
S214004E20DBB28DF80630514B1B6ADBB28DF80530CD
S214004E304F4B1B78DBB28DF807304E4B1B889BB26E
S214004E40DBB28DF806304C4B1B889BB2DBB28DF87C
S214004E5006304A4B1B68DBB28DF80530484B1B7892
S214004E60DBB28DF80630474B1B78DBB28DF8073087
S214004E70454B1B78DBB28DF80730444B1B78DBB212
S214004E808DF80730424B1B78DBB28DF80730414B6C
S214004E901B78DBB28DF807303F4B1B78DBB28DF802
S214004EA007303E4B1B889BB2DBB28DF806303C4B7E
S214004EB01B78DBB28DF807303A4B1B889BB2DBB20F
S214004EC08DF80630384B1B889BB2DBB28DF8063067
S214004ED0364B1B78DBB28DF80730354B1B889BB200
S214004EE0DBB28DF80630334B1B889BB2DBB28DF8F5
S214004EF006309DF807309DF806309DF8053000BF57
S214004F0002B070473C100020841000203D100020A6
S214004F101C7700204010002020770020441000203E
S214004F204877002046100020481000204A10002035
S214004F304C1000204E100020501000204C7700200F
S214004F405210002054100020561000205810002048
S214004F505A1000205C1000205E1000207C77002095
S214004F60601000206210002064100020AC77002043
S214004F706510002066100020681000206C100020CD
S214004F807010002071100020721000207310002096
S214004F907410002075100020761000207810002075
S214004FA07A1000207C1000207E100020D47700208D
S214004FB0D67700208010002000B591B003900291B3
S214004FC001920093009B002B01D103F020F804F01F
S214004FD067FC0346002B0CD0009B20221A70009B17
S214004FE0264A5A60009B55229A60009B244ADA6043
S214004FF0FEE7039B002B0CD1009B0A221A70009B35
S2140050001E4A5A60009B58229A60009B1C4ADA602F
S214005010FEE704F029FC0F90039B184628231A4647
S214005020002107F04DFB039B164A1A60039B029A69
S2140050305A60039B019A1A62039B08331846FFF7CF
S214005040C5F9039800F022FC0F4B1B8801339AB277
S2140050500D4B1A800F9804F017FC009B00221A7064
S214005060009B064A5A60009B70229A60009B044A86
S214005070DA6000BF11B05DF804FB00BF48F800001E
S214005080C8F80000464C4147F877002000B589B0C4
S214005090039002910192ADF802300B9B002B01D1D8
S2140050A002F0B5FFBDF90230002B07DB04F0F8FB79
S2140050B0034683F00103DBB2002B01D0012300E09E
S2140050C00023002B0DD10B9B20221A700B9B9B4AB2
S2140050D05A600B9B40F235129A600B9B984ADA6036
S2140050E0FEE7BDF90230002B07DB04F0E7FB0346C2
S2140050F083F00103DBB2002B01D0012300E0002384
S214005100002B0DD10B9B1F221A700B9B8B4A5A60EB
S2140051100B9B40F239129A600B9B894ADA60FEE7D5
S214005120884B1B78012B0ED00B9B02221A700B9B10
S214005130824A5A600B9B4FF49F729A600B9B804A80
S214005140DA6000234EE2039B002B0DD10B9B0A2254
S2140051501A700B9B794A5A600B9B40F243129A6076
S2140051600B9B774ADA60FEE7BDF80230012B50D081
S214005170BDF80230022B4CD0BDF80230042B48D0CC
S214005180BDF80230082B44D0BDF8023040F20112C0
S21400519093423ED0BDF80230B3F5817F39D0BDF8DA
S2140051A00230B3F5827F34D0BDF80230B3F5847F89
S2140051B02FD0BDF8023048F20102934229D0BDF844
S2140051C0023048F20202934223D0BDF8023048F281
S2140051D0040293421DD0BDF8023048F20802934202
S2140051E017D0BDF8023048F20112934211D0BDF834
S2140051F0023048F2021293420BD0BDF8023048F259
S2140052000412934205D0BDF8023048F208129342C9
S21400521001D1012300E00023002B0DD10B9B0822B7
S2140052201A700B9B454A5A600B9B4FF4A3729A6008
S2140052300B9B434ADA60FEE7039B1B68424A934295
S2140052400DD00B9B0C221A700B9B3C4A5A600B9B92
S2140052504FF4AC729A600B9B394ADA60FEE7BDF8F1
S214005260023003F48073002B03D001238DF81F3027
S21400527002E000238DF81F300A9B002B02D00A9B09
S21400528000221A60BDF8023003F00F03ADF81C30A0
S21400529004F0EAFA0690BDF81C30042B02D0082B66
S2140052A077D0E2E0039B1B6A029A13400593059AA7
S2140052B0029B9A422CD19DF81F30012B06D1039BEE
S2140052C01A6A059BDB431A40039B1A621F4B1B6836
S2140052D0002B04D01D4B1B68059AC3F8A8200A9B18
S2140052E0002B03D0039B5A6A0A9B1A60069804F0A8
S2140052F0CBFA0B9B00221A700B9B104A5A600B9B32
S2140053004FF4BB729A600B9B0D4ADA60059B69E10D
S214005310BDF90230002B1BDA069804F0B5FA0B9B99
S2140053201D221A700B9B054A5A600B9B40F27D1299
S2140053309A600B9B024ADA60002353E148F80000AB
S214005340D8F80000F0770020464C4147347C002017
S214005350974B1B78002B11D0069804F095FA0B9B00
S2140053602D221A700B9B934A5A600B9B4FF4C27205
S2140053709A600B9B904ADA60002333E1BDF8022066
S214005380019B0299039800F05DFA069804F07CFAF7
S21400539070E0039B1B6A029A13400593059B002B43
S2140053A02CD09DF81F30012B06D1039B1A6A059B53
S2140053B0DB431A40039B1A62804B1B68002B04D009
S2140053C07E4B1B68059AC3F8A8200A9B002B03D0C7
S2140053D0039B5A6A0A9B1A60069804F055FA0B9BC0
S2140053E000221A700B9B734A5A600B9B4FF4D172C3
S2140053F09A600B9B704ADA60059BF3E0BDF90230B9
S214005400002B11DA069804F03FFA0B9B1D221A7047
S2140054100B9B684A5A600B9B40F2A9129A600B9B42
S214005420654ADA600023DDE0614B1B78002B11D063
S214005430069804F029FA0B9B2D221A700B9B5D4AE6
S2140054405A600B9B4FF4D8729A600B9B5A4ADA60EC
S2140054500023C7E0BDF80220019B0299039800F0E4
S214005460F1F9069804F010FA04E0069804F00CFA35
S21400547002F0CDFDFEF742FD04F0F6F906904F4B24
S2140054801B6893F83130032B69D801A252F823F039
S214005490A1540000CD5400002D550000FF5400001C
S2140054A00A9B002B04D0454B1B685A6C0A9B1A605B
S2140054B00B9B00221A700B9B3E4A5A600B9B40F2D5
S2140054C02D229A600B9B3C4ADA604DE00A9B002B2B
S2140054D004D03A4B1B685A6C0A9B1A60069804F074
S2140054E0D3F90B9B21221A700B9B324A5A600B9BF6
S2140054F04FF40E729A600B9B2F4ADA6034E00A9BD8
S214005500002B02D00A9B00221A60069804F0BCF911
S2140055100B9B22221A700B9B264A5A600B9B40F26A
S21400552041229A600B9B244ADA601DE00A9B002BFE
S21400553004D0224B1B685A6C0A9B1A60069804F02B
S214005540A3F90B9B31221A700B9B1A4A5A600B9BCD
S2140055504FF413729A600B9B174ADA6004E00698C1
S21400556004F092F902F053FD0B9B1B78002B01D040
S214005570002337E0114B1B68D3F8A83005939DF83D
S2140055801F30012B1CD1BDF81C30042B01D0082B7A
S21400559007D1039B1A6A059BDB431A40039B1A62DA
S2140055A00FE0069804F070F902F031FD09E000BF44
S2140055B0187B002048F80000D8F80000347C002053
S2140055C000BF069804F060F90B9B00221A700B9B34
S2140055D0064A5A600B9B40F26F229A600B9B044A65
S2140055E0DA60059B184609B05DF804FB48F8000031
S2140055F0D8F8000000B58DB00390029100931346D2
S214005600ADF80630009B002B01D102F000FD894B5F
S2140056101B78012B0ED0009B02221A70009B864A34
S2140056205A60009B40F232329A60009B834ADA60EE
S2140056300023FBE0039B002B0DD1009B0A221A706F
S214005640009B7D4A5A60009B40F237329A60009B6E
S2140056507A4ADA60FEE7BDF80630002B0ED0BDF8B9
S2140056600630012B0AD0BDF80630B3F5004F05D042
S214005670BDF8063048F20102934201D1012300E052
S2140056800023002B0DD1009B08221A70009B6A4A4B
S2140056905A60009B40F23A329A60009B674ADA6092
S2140056A0FEE7039B1B68664A93420DD0009B0C22C4
S2140056B01A70009B604A5A60009B4FF450729A60C2
S2140056C0009B5E4ADA60FEE7FEF702FA0A9004F0F4
S2140056D0CBF80990BDF8063048F20102934215D087
S2140056E048F20102934219DCB3F5004F07D0B3F538
S2140056F0004F13DC002B02D0012B07D00EE0039BDB
S2140057001A6A029B1A43039B1A620CE0039B1A6AEE
S214005710029BDB431A40039B1A6204E0099804F0DC
S214005720B3F802F074FC039B0A9A5A62039B083390
S2140057300893089B1B68002B12D1099804F0A4F864
S214005740009B00221A70009B3B4A5A60009B40F266
S21400575062329A60009B394ADA60039B1B6A65E0F6
S214005760089B1B680B933EE00B9B5B6A06930B9BA8
S214005770B3F8AC3003F00F03ADF81630BDF81630B2
S214005780042B02D0082B13D022E0039B1A6A0B9B33
S214005790D3F8A430134004930B9BD3F8A430049A98
S2140057A09A421BD10A9A04990B9800F091F815E0DA
S2140057B0039B1A6A0B9BD3F8A43013400493049BF4
S2140057C0002B0DD00A9A04990B9800F081F807E098
S2140057D0099804F059F802F01AFC02E000BF00E055
S2140057E000BF069B0B930B9B002BBDD1099804F0C2
S2140057F04BF8BDF90630002B01DBFEF77FFB04F00B
S21400580033F80990039B1B6A0793099804F03CF849
S214005810009B00221A70009B074A5A60009B40F2C9
S214005820A3329A60009B054ADA60079B18460DB0C3
S2140058305DF804FBF077002048F80000E4F800006C
S214005840464C414700B585B003900291009313463D
S214005850ADF806300C4B1B68029AC3F8A4200A4B1E
S2140058601B68BDF80620A3F8AC20074B1B68002277
S214005870C3F8A820009A01210398FEF7EBFC00BFAE
S21400588005B05DF804FB00BF347C002082B00190B8
S214005890019B0D4ADA61019B00225A610B4B1B6883
S2140058A0002B03D1019B00229A6107E0074B1A6880
S2140058B0019B9A61054B1B68019A5A61034A019B3A
